:100000000C9415020C9427020C9427020C949E3237
:100010000C94802F0C9427020C9427020C94270236
:100020000C9427020C9427020C9427020C94A82FFE
:100030000C9427020C9427020C9427020C9427029C
:100040000C94922F0C9427020C94D9310C94743296
:100050000C9427020C9427020C9427020C9427027C
:100060000C9427020C942702084AD73B3BCE016E22
:1000700084BCBFFDC12F3D6C74319ABD56833DDAFF
:100080003D00C77F11BED9E4BB4C3E916BAAAABE0E
:10009000000000803F05A84CCDB2D44EB93836A937
:1000A000020C50B9918688083CA6AAAA2ABE000074
:1000B00000803F000D0A4772626C20312E316820AB
:1000C0005B68656C703A2724275D0D0A00244E009A
:1000D00020594D443A3230323030353132002050E0
:1000E00043423A005B6772626C3A312E31682047B6
:1000F000473A00206D6D5D0D0A005B544C4F3A008D
:100100005B4739323A003330003238005B47002019
:100110004700204D00205300204600205400333873
:100120002E005B47433A47005B245F3D5F207365C9
:1001300074005B244E2073746172747570005B24CC
:10014000242073657474696E6773005B2423206FC9
:10015000666673657473005B244320636865636B34
:10016000005B244C206C6576656C58005B2449204C
:1001700076657273696F6E005B244720475F737406
:10018000617465005B245820756E6C6F636B005B57
:10019000244820686F6D65005B203F207374617494
:1001A000757300414C41524D3A00686F6D650070A7
:1001B000726F626500726573657400536F667420B8
:1001C0004C696D004C696D697420007C573A007C65
:1001D0004C3A007C423A007C573A007C4D3A00533E
:1001E0006C65657000436865636B00416C61726D9E
:1001F00000486F6D65004A6F6700486F6C643A0095
:1002000052756E0049646C65000D0A003A6D6D0010
:100210003A6D6D2F735E32003A6D6D2F6D696E0011
:100220003A7374702F6D6D0072706D4D696E00724F
:10023000706D4D617800686F6D6550756C6C6F66A0
:100240006600686F6D6544656C617900686F6D6507
:100250005365656B00686F6D6546696E6500686F14
:100260006D654469724D61736B00686F6D65456EB5
:1002700000686172644C696D00736F66744C696DDF
:1002800000496E636800617263546F6C006A6E634C
:1002900044657600737461744D61736B00707262B3
:1002A0004C564C006C696D4C564C0073746570452F
:1002B0006E006469724D61736B00737465704D619B
:1002C000736B0069646C6544656C61790073746577
:1002D0007050756C736500472D636F646520006D09
:1002E000697373696E6720005B5052423A00636F16
:1002F0006E666C69637400776F726400617869730D
:10030000006572726F723A00005200746172670089
:100310004C6574004C6E006E756D0047307C473143
:10032000004735390047343300463F0062616400BE
:100330006A6F67494E56006A6F674C494D00326CD0
:100340006F6E670024482064697361626C656400A5
:100350006E6F742069646C65004D454D696E6974FB
:10036000002D230024554E4B000000C8430000C858
:10037000430000C84300C01E4500C0414500C041C5
:100380004500BADB4900BADB4900BADB490000ADE1
:10039000C2008071C300009DC20A0000647F0AD7BA
:1003A000A33C6F12033B0000FA45000000007801F7
:1003B0000000F0410000FA4401000000003F6F6BB4
:1003C0000D0A005B6563686F3A20005B4D53473A46
:1003D00000536C65657000526573746F72653A7393
:1003E00070696E646C6500526573746F72653A640F
:1003F000656661756C74730050676D20456E6400AE
:1004000024433A4F46460024433A4F4E00556E6C03
:100410006F636B65640024482F2458005265736530
:100420007420746F20636F6E740011241FBECFEFB1
:10043000D8E0DEBFCDBF27E0A0E0B1E001C01D9253
:10044000A237B207E1F70E94CD320C94FD3E0C9426
:1004500000008F929F92AF92BF92CF92DF92EF9265
:10046000FF920F931F93CF93DF937C016B01DC010D
:10047000EC91F0E0EE5DF84F8081EF018D3229F5CF
:100480002296818101E0912CF0E010E020E030E044
:10049000A9015E01E0EDE80FEA3018F5FF5FF930E1
:1004A000E0F491101150A5E0B0E00E94D63E9B010F
:1004B000AC01220F331F441F551F2E0F311D411D4C
:1004C000511D2196D5018C91E4CF8B3219F02196E4
:1004D00000E0D9CF22968181FBCF911006C01F5F2B
:1004E000F0CFEE3F29F4911003C099249394E9CF03
:1004F000FF23F9F0CA01B9010E94D53B4B015C0111
:1005000020E030E0A9010E94233B81112BC0002391
:1005100009F445C0B7FAB094B7F8B094F6018082F8
:100520009182A282B382C252D740C150F701C083E8
:10053000F1E08F2FDF91CF911F910F91FF90EF90FE
:10054000DF90CF90BF90AF909F908F9008952AE05A
:1005500037ED43E25CE3C501B4010E94853D4B01E8
:100560005C011E5F1F3F9CF31F3F59F42DEC3CECD8
:100570004CEC5DE3C501B4010E94853D4B015C017B
:10058000C6CF112321F220E030E040E251E4C50162
:10059000B4010E94853D4B015C011150F2CFD601A0
:1005A0008D929D92AD92BC921397BDCF2FB7F894C8
:1005B00090912806892B809328062FBF08952FB786
:1005C000F89490912706892B809327062FBF0895D2
:1005D0009FB7F894809326069FBF08959FB7F8941D
:1005E0002091250680958223809325069FBF08953C
:1005F0002FB7F89490912506892B809325062FBF5D
:100600000895AF92BF92CF92DF92EF92FF920F9335
:100610001F93CF93DF93EC0109E716E05C018CE0B8
:10062000A80EB11CC990D990E990F99020E030E073
:10063000A901C701B6010E94453D1816DCF0F8017A
:1006400021913191419151918F01C701B6010E94D1
:10065000233B87FD0FC0CA15DB0521F780E0DF9142
:10066000CF911F910F91FF90EF90DF90CF90BF90AF
:10067000AF90089581E0F3CF8F929F92AF92BF9297
:10068000CF92DF92EF92FF920F931F93CF93DF935E
:10069000EB0125E5E22E26E0F22E8C016B018CE0C9
:1006A000C80ED11C6991799189919991F701819036
:1006B0009190A190B1907F010E94D73BA501940138
:1006C0000E942D3BF80161937193819391938F0167
:1006D000CC15DD0539F7DF91CF911F910F91FF9078
:1006E000EF90DF90CF90BF90AF909F908F90089544
:1006F000CF93DF93C0912306D09124062097C9F0B1
:100700008091F40581608093F40560910A067091F0
:100710000B0680910C0690910D069B01AC010E9486
:10072000853D6E8B7F8B888F998F10922406109257
:100730002306DF91CF91089590918606492F8091ED
:100740008706282F90FF11C094E080FF10C080E240
:1007500041FD986021FD806442FD906122FD80682A
:100760009093170280931802089590E0EECF80E0F6
:10077000EFCF3B988093B300811106C08091B00009
:100780008F778093B00008958091B0008068F9CF92
:10079000E0EBF0E080818F7780833B9A0895239A85
:1007A00083E08093B00082E08093B10020919606B0
:1007B0003091970640919806509199066091920663
:1007C0007091930680919406909195060E942D3A1F
:1007D0009B01AC0160E070E08EE793E40E942D3B4A
:1007E0006093130270931402809315029093160283
:1007F000259A43980C94C803E0911D0191E09E0F47
:10080000913709F490E020918F01291761F0F0E011
:10081000E25EFE4F808390931D018091C100806253
:100820008093C10004C02091250624FFECCF0895D9
:10083000CF93DF93C2E2D7E08991811103C0DF91AA
:10084000CF9108950E94FC03F7CF10922906909152
:100850009A0697FD03C090E290932906882331F011
:100860008091290690E289278093290608958F9226
:100870009F92AF92BF92CF92DF92EF92FF920F932F
:100880001F93CF93DF93CDB7DEB72D970FB6F894B4
:10089000DEBF0FBECDBF6B017C01042F20E030E036
:1008A000A9010E94233B87FF07C08DE20E94FC0341
:1008B000F7FAF094F7F8F094102F123008F054C0C3
:1008C00000FF0AC020E030E040E251E4C701B60179
:1008D0000E94853D6B017C0120E030E040E05FE359
:1008E000C701B6010E942E3A0E949F3B10E03AE0F9
:1008F000832E912CA12CB12CE12FF0E06115710514
:1009000081059105E9F581E090E08C0F9D1FE80FCE
:10091000F91F80E3101708F445C0101309C0E1E087
:10092000F0E0EC0FFD1FE10FF11D80E380831F5FFE
:10093000EE24E394F12CEC0EFD1EE10EF11C1111DE
:1009400034C02D960FB6F894DEBF0FBECDBFDF9139
:10095000CF911F910F91FF90EF90DF90CF90BF90BC
:10096000AF909F908F90089520E030E048EC52E4E3
:10097000C701B6010E94853D6B017C0112509DCFDD
:10098000EE24E394F12CEC0EFD1EEE0EFF1EA501ED
:1009900094010E94AE3E605DF7016083B901CA0117
:1009A0001F5FAACF1F5F8193B5CF101303C08EE2E4
:1009B0000E94FC03F70182917F010E94FC03115009
:1009C000BECF20919A0643E020FF07C02BE832E417
:1009D00041E25DE30E94853D44E00C9437040F93AF
:1009E0001F93CF938C01C0E0F801619171918191C7
:1009F00091918F010E94E104C23019F08CE20E94B3
:100A0000FC03CF5FC33081F7CF911F910F91089501
:100A10008F929F92AF92BF92CF92DF92EF92FF920E
:100A20000F931F93CF93DF93CDB7DEB72A970FB6FF
:100A3000F894DEBF0FBECDBF61157105810591052C
:100A4000A9F480E32A960FB6F894DEBF0FBECDBF9F
:100A5000DF91CF911F910F91FF90EF90DF90CF909A
:100A6000BF90AF909F908F900C94FC0300E09E018C
:100A70002F5F3F4F79012AE0822E912CA12CB12CBF
:100A80006701C00ED11CA50194010E94AE3EF60183
:100A90006083B901CA010F5F611571058105910578
:100AA00079F70E0D1F2D111DE016F10699F42A9607
:100AB0000FB6F894DEBF0FBECDBFDF91CF911F916F
:100AC0000F91FF90EF90DF90CF90BF90AF909F90ED
:100AD0008F900895F80182918F01805D0E94FC0340
:100AE000E3CFCF92DF92EF92FF9297FF0CC06B01A2
:100AF0007C018DE20E94FC0366277727CB016C19ED
:100B00007D098E099F09FF90EF90DF90CF900C94A4
:100B10000805CF93DF93843658F06AE00E948E3E3A
:100B2000C0E3C90F6AE00E948E3ED0E3D90F04C033
:100B3000C0E0D0E08A30B0F7805D0E94FC03DD2386
:100B400019F08D2F0E94FC03CC2329F08C2FDF910C
:100B5000CF910C94FC03DF91CF910895CF93DF9355
:100B6000EC01FE0184912196811103C0DF91CF91A8
:100B700008950E94FC03F5CF87ED92E00C94AE053A
:100B80000E94BC058FED92E00C94AE0589E092E0E6
:100B90000C94AE050E9418040C94C605CF93C82F80
:100BA00080E20E94FC0388E20E94FC03C03208F04D
:100BB00067C0EC2FF0E0E152FA4F0C94D03EFF05F5
:100BC000040607060A060D06100613064006400630
:100BD0004006160619061C061F064006400640067B
:100BE0004006400640062206250628062B062E064D
:100BF000310634063706400640063A063D068DECBF
:100C000092E00E94AE054BC083EC92E0FACF8AEBF3
:100C100092E0F7CF82EB92E0F4CF8BEA92E0F1CF53
:100C200084EA92E0EECF8DE992E0EBCF84E992E0A6
:100C3000E8CF8DE892E0E5CF86E892E0E2CF81E868
:100C400092E0DFCF89E792E0DCCF81E792E0D9CF75
:100C50008AE692E0D6CF8EE592E0D3CF85E592E0AA
:100C6000D0CF8CE492E0CDCF82E492E0CACF86E38D
:100C700092E0C7CF8FE292E0C4CF88E292E0C1CF8A
:100C80008CE98C0FC0E08A3080F488580E94FC0305
:100C9000C13089F068F0C23089F0C33091F089E248
:100CA0000E94FC03CF910C94C6058A50CF5FEBCF16
:100CB00080E292E0A6CF88E192E0A3CF80E192E0CB
:100CC000A0CF8CE092E09DCFCF92DF92EF92FF9287
:100CD000CF93DF93C82F6A017B01D22F84E20E9459
:100CE000FC038C2F0E9489058DE30E94FC034D2F8D
:100CF000C701B6010E9437048C2FDF91CF91FF907E
:100D0000EF90DF90CF900C94CE05CF93DF93C82F58
:100D1000D62F84E20E94FC038C2F0E9489058DE36C
:100D20000E94FC038D2F0E9489058C2FDF91CF91AB
:100D30000C94CE05EF92FF920F931F93CF93DF9306
:100D40006091850670E080E00E94850660918806CB
:100D500070E081E00E9485066091860670E082E086
:100D60000E9485066091870670E083E00E948506F8
:100D700060919A0662FB662760F970E084E00E9449
:100D8000850660919A0666FB662760F970E085E04B
:100D90000E94850680919A06082E000C990B692FF7
:100DA000661F6627661F70E086E00E9485066091D8
:100DB000890670E08AE00E94850640918A0650917B
:100DC0008B0660918C0670918D0623E08BE00E946B
:100DD000640640918E0650918F0660919006709146
:100DE000910623E08CE00E94640660919A0661708F
:100DF00070E08DE00E94850660919A0665FB66278B
:100E000060F970E084E10E94850660919A0663FBB8
:100E1000662760F970E085E10E94850660919A0678
:100E20006295617070E086E10E94850660919B0684
:100E300070E087E10E94850640919C0650919D06D6
:100E400060919E0670919F0623E088E10E946406EF
:100E50004091A0065091A1066091A2067091A30650
:100E600023E089E10E9464066091A4067091A506C2
:100E70008AE10E9485064091A6065091A7066091DE
:100E8000A8067091A90623E08BE10E9464064091B8
:100E9000920650919306609194067091950620E019
:100EA0008EE10E94640640919606509197066091EB
:100EB00098067091990620E08FE10E94640684E60E
:100EC000F82E10E0C5E5D6E000E0E02EEF0C123081
:100ED00011F1133069F11130C9F0488159816A81EB
:100EE0007B8123E08E2D0E9464060F5F24960330E1
:100EF00061F78AE0F80E1F5F8CE8F812E3CFDF910C
:100F0000CF911F910F91FF90EF9008954C855D85D3
:100F10006E857F85E6CF20E030E041E655E4688DC0
:100F2000798D8A8D9B8D0E942D3BAB01BC01D9CF61
:100F30004CA15DA16EA17FA17058D3CF8DE50E9419
:100F4000FC030C94C60583EC93E00E94AE050E945E
:100F500018040C949E07CF93C82F8BEC93E00E944B
:100F6000AE05EFEFEC0FE53208F02EC0F0E0E554EF
:100F7000F84F0C94D03E3E083108E007F407FD0717
:100F8000E407F707FA07FD07FD070008E407E40791
:100F9000000803080608E407E407E4071308270825
:100FA0001808310827082708360839084D0822088C
:100FB0002C0809084D08430848084D080E081D086C
:100FC00084E693E00E94AE050E949E0788E093E0CD
:100FD0000E94AE0581E093E00E94AE058C2F0E9436
:100FE0008905CF910C94C60581E693E0EBCF89E5A6
:100FF00093E0E8CF80E593E0E5CF84E493E0E2CFAF
:101000008EE393E0DFCF87E393E0DCCF80E393E0F0
:10101000D9CF0E94BC058CEF92E0D4CF0E94BC05D2
:1010200087EF92E0CFCF0E94BC058CE293E0CACF5D
:101030000E94BC0589E293E0C5CF0E94BC0585E211
:1010400093E0C0CF0E94BC0581E293E0BBCF0E9439
:10105000BC058EEE92E0B6CF0E94C0058BE193E016
:10106000B1CF0E94C00587E193E0ACCF0E94C005DC
:10107000D2CF0E94C00584E193E0A4CF0E94C005B6
:1010800080E193E09FCF0E94C0058BE093E09ACF70
:101090000E94C00589E093E095CF0E94C005C0CFB3
:1010A000811104C08EEB93E00C94AE050C94AB0759
:1010B000CF93DF93CDB7DEB72C970FB6F894DEBF92
:1010C0000FBECDBF88EE92E00E94AE0566E376E0EB
:1010D000CE0101960E943C03CE0101960E94EF04CE
:1010E0008AE30E94FC03809148060E9489050E94C1
:1010F0009E072C960FB6F894DEBF0FBECDBFDF91D2
:10110000CF910895E1E0F1E0AAE2B6E04D915D9162
:101110006D917C91139740835183628373831496FE
:101120004D915D916D917C911797448355836683B2
:10113000778318968D919D910D90BC91A02D8087FD
:101140009187A287B3870895BF92CF92DF92EF92E3
:10115000FF920F931F93CF93DF937C01FC0106A5B1
:1011600017A5D0A9C1A9818980FF33C060914C0621
:1011700070E090E080E00E94D73B2AE037ED43E248
:101180005CE30E94853D9B01AC01B8018D2F9C2F33
:101190000E94853D8B01D82FC92F20E030E040E828
:1011A0005FE3B8018D2F9C2F0E94453D181624F057
:1011B00000E010E0D0E8CFE3B8018D2F9C2FDF9145
:1011C000CF911F910F91FF90EF90DF90CF90BF9044
:1011D000089582FD17C060914B0670E090E080E0BA
:1011E0000E94D73B2AE037ED43E25CE30E94853D55
:1011F0009B01AC01B8018D2F9C2F0E94853D8B0176
:10120000D82FC92FF701B2A4C3A4D4A4F5A4980180
:101210004D2F5C2F6B2D7C2D8D2D9F2D0E94233B00
:1012200087FFBBCF0B2D1C2DDD2DCF2DB6CF809191
:101230003E0290916905981739F026E3829FC0011C
:101240001124815C9D4F089590E080E008950E94F4
:101250001709892B19F082E00C94F80208952F9257
:101260003F924F925F926F927F928F929F92AF9236
:10127000BF92CF92DF92EF92FF920F931F93CF9383
:10128000DF9300D000D0CDB7DEB700916905002311
:1012900009F486C0098339813150398310913D02A8
:1012A000131709F466C0C32ED12CE6E33E9FC0019C
:1012B00011249C01215C3D4F7901F901728C838CD2
:1012C000948CA58C668D778D80A191A19B01AC013A
:1012D0000E942E3AF70122A133A144A155A10E94F8
:1012E000853DB62EE72EF82E9B83262F372F482FCD
:1012F000592F672D782D892D9A2D0E94233B87FF2A
:1013000003C0B72C7401AB8286E38C9DF0018D9DE8
:10131000F00D1124E15CFD4F8B2D9E2DAF2DBB8177
:10132000868B978BA08FB18FF9818F2FF11101C020
:101330008FE0FF24FA94F80E30903E021F1133C064
:10134000131102C00E947803E6E31E9FC00111241E
:10135000815C9D4F9A83898333243394310EFFE05F
:101360003F1201C0312C86E3282E031185C0109353
:101370003D020F900F900F900F90DF91CF911F9132
:101380000F91FF90EF90DF90CF90BF90AF909F9024
:101390008F907F906F905F904F903F902F90089527
:1013A0002FE0298378CF298186E3289F900111249B
:1013B000215C3D4F3C832B8326E3E22E8F2C912C26
:1013C000FE9CC0011124FC01E15CFD4FFA83E9831E
:1013D000F11002C09FE0F92EFA94F31002C00E94AF
:1013E0007803E89CC001E99C900D11249C01215CCC
:1013F0003D4F6901F901428C538C648C758CA301BB
:10140000920166897789808D918D0E94233B882384
:1014100039F1F601668D778D80A191A19B01AC0118
:101420000E942E3AF60122A133A144A155A10E94A7
:10143000853DEB81FC8126893789408D518D0E9445
:101440002E3A4B015C01AC019B01C301B2010E9429
:10145000453DF60118165CF4868A978AA08EB18EF7
:1014600029813A813C832B831F11A8CF6DCF468AF7
:10147000578A608E718EF4CFC32CD12C329CC00160
:1014800011249C01215C3D4F7901E981FA81468854
:101490005788608C718CF90186889788A08CB18CF4
:1014A000A5019401C301B2010E94233B87FF26C01E
:1014B000E981FA81668D778D80A191A19B01AC01B4
:1014C0000E942E3AE981FA8122A133A144A155A1BB
:1014D0000E94853DA30192010E942E3A2B013C01FE
:1014E000AC019B01C501B4010E94453D181634F4BE
:1014F000F701468A578A608E718E132D2C9CF0015D
:101500002D9CF00D1124E15CFD4F228D338D448D17
:10151000558D66897789808D918D0E94233B81113D
:1015200001C0132D3394FFE03F1201C0312CFA8229
:10153000E9821BCF6F927F928F929F92AF92BF9260
:10154000CF92DF92EF92FF920F931F93CF93DF938F
:10155000EB018C015B018CE0A80EB11C89E9682EBF
:1015600096E7792E26E9822E3EE7932EC990D990F0
:10157000E990F99020E030E0A901C701B6010E948E
:10158000233B8823B9F0A7019601F801608171819E
:10159000828193810E942D3B6B017C01E894F7F8D6
:1015A0009301A401C701B6010E94453D181614F02D
:1015B000360147010C5F1F4FCA15DB05B9F6B301B1
:1015C000C401DF91CF911F910F91FF90EF90DF90B9
:1015D000CF90BF90AF909F908F907F906F90089525
:1015E00096B180919A0686FF05C0947081E009F457
:1015F00080E008959095F9CF93B180919A0686FF87
:101600000BC0967159F091FB882780F992FD82609A
:10161000907129F0846008959095F3CF80E008954B
:10162000EBE6F0E08081897E8083E8E6F0E080816F
:101630008E7F8083089584B1897E84B987B1897E45
:1016400087B92A9A429A80919A0683FF0BC08091AB
:101650006B00866180936B0080916800816080934D
:10166000680008950C94100B6AE276E081EC96E035
:101670000C943C03F894F999FECF92BD81BD81E0B2
:101680008FBB20B5862F8227082E000C990B50E0C7
:1016900086239523892B49F084E16F3F11F060BDCB
:1016A00084E08FBBF99A789408952617E1F360BD22
:1016B00084E2F7CFCF93C82F692F80EA92E00E948F
:1016C0003A0B6C2F81EA92E0CF910C943A0B9F92E7
:1016D000AF92BF92CF92DF92EF92FF920F931F9340
:1016E000CF93DF935C018A017B01E40EF51EEB01D1
:1016F000912C6C01C61AD70ACE018C0D9D1D21E0DC
:10170000911007C0292D990C330B232F221F22275C
:10171000221F6991962E920E0E943A0BCE15DF057C
:1017200059F7692DC501800F911FDF91CF911F914E
:101730000F91FF90EF90DF90CF90BF90AF909F9070
:101740000C943A0B6AE090E080E00E943A0B45E589
:1017500050E065E576E081E090E00C94670BF99944
:10176000FECF92BD81BD81E08FBB80B5089590E032
:1017700088569D4F0C94AF0B9F92AF92BF92CF9221
:10178000DF92EF92FF920F931F93CF93DF935B0152
:101790008A017C01E40EF51EEC01912C6B01C81A44
:1017A000D90AC6018C0F9D1F0E94AF0B21E091103A
:1017B00007C0292D990C330B232F221F2227221F0C
:1017C000982E920E8993CE15DF0559F7C501800F2B
:1017D000911F0E94AF0B21E030E0891511F030E03D
:1017E00020E0C901DF91CF911F910F91FF90EF9001
:1017F000DF90CF90BF90AF909F90089540E550E06C
:1018000060E573E082E297E00E94BC0B81E00895FE
:1018100084E190E0A0E0B0E08A309105A105B10537
:1018200060F425E02A95F1F700000197A109B109BC
:101830000097A105B10581F7089525E32A95F1F7F1
:1018400000000A97A109B109F3CF80919A0682FF9F
:1018500004C0289907C0289A0895289B03C0289897
:101860000C94080C08950E94250C419902C0399BE4
:1018700004C0419839980C94080C0895419B16C0F7
:10188000399B14C00E94250C809117028093280276
:10189000809185068250990B880F8195809327024D
:1018A00080916F00826080936F0008950E94330CD6
:1018B000EBCF883451F08C3469F0803389F4809117
:1018C0009A0682FF05C028980895419A399AF7CF61
:1018D000289A08950E94250C4198399A0C94080C76
:1018E0000895019708F40895EFE9FFE03197F1F7C3
:1018F00000C00000F6CF80916F008D7F80936F0055
:1019000080918100887F816080938100109219020C
:1019100080918806909143068F3F61F420912606BE
:10192000211108C0903841F490E00E94710C8CE4C1
:101930000C94590C9430C1F70C94330C809125060B
:1019400084FD1EC080E10E94F8020E94C8039091AD
:101950004306892F8C7221F480914706867081F0AE
:10196000943061F480912606811103C086E00E94C4
:10197000E8020E947B0C80E30C94590C83E0F7CFC3
:101980000895CF93DF930E947B0CE3EFF5E080E3B3
:10199000DF011D928A95E9F7CAE1D2E083E2FE01F8
:1019A00011928A95E9F7109224061092230610925C
:1019B0006A051092960581E080936B0510921902DA
:1019C0000E949C03809118028F878BB1837E909137
:1019D0001702892B8BB98BB18F7190911802892BCB
:1019E0008BB9DF91CF910895E1E0F1E08CE1DF0167
:1019F0001D928A95E9F710923E021092690581E0E6
:101A00008093000110923D0208954F925F926F9271
:101A10007F92AF92BF92CF92DF92EF92FF920F939D
:101A20001F93CF93DF93EC015C012CE0A20EB11C5D
:101A30008C01C12CD12C7601F8014190519061901C
:101A400071908F0120E030E0A901C301B2010E9432
:101A5000233B882371F0A3019201C301B2010E94CC
:101A6000853D9B01AC01C701B6010E942E3A6B0176
:101A70007C010A151B0501F7C701B6010E94243E2F
:101A80006B017C01AC019B0160E070E080E89FE3AA
:101A90000E942D3B2B013C0169917991899199918B
:101AA0005E01F4E0AF1AB108A30192010E94853DE6
:101AB000F5016083718382839383C017D10761F737
:101AC000C701B601DF91CF911F910F91FF90EF9069
:101AD000DF90CF90BF90AF907F906F905F904F90CE
:101AE00008954F925F926F927F928F929F92AF92E2
:101AF000BF92CF92DF92EF92FF926B017C018090B8
:101B0000960690909706A0909806B09099064090FF
:101B10009206509093066090940670909506A301EB
:101B20009201C501B4010E94453D87FF1BC0609131
:101B30004D0670E090E080E00E94D73B2AE037ED50
:101B400043E25CE30E94853DA70196010E94853D2A
:101B50006B017C01AC019B01C301B2010E94233BDC
:101B60001816B4F0409251065092520660925306F5
:101B7000709254068FEFFF90EF90DF90CF90BF9060
:101B8000AF909F908F907F906F905F904F9008954F
:101B9000A7019601C501B4010E94453D87FD1CC007
:101BA00020E030E0A901C701B6010E94233B81116A
:101BB00009C01092510610925206109253061092CC
:101BC0005406D9CF8092510690925206A0925306A5
:101BD000B092540681E0CFCFC0925106D092520607
:101BE000E0925306F0925406A5019401C701B60194
:101BF0000E942D3A20911302309114024091150257
:101C0000509116020E94853D0E94123C20E030E077
:101C100040E85FE30E942E3A0E94A63B862FABCF9E
:101C20002F923F924F925F926F927F928F929F92EC
:101C3000AF92BF92CF92DF92EF92FF920F931F93DA
:101C4000CF93DF93CDB7DEB7EB970FB6F894DEBF37
:101C50000FBECDBF8091470680FD53C290916A05AB
:101C600080916B05981709F44CC2809123069091DE
:101C70002406892B09F07EC01091470612FF5AC234
:101C80008091690526E3829FC0011124815C9D4FEC
:101C900090932406809323064091230650912406B6
:101CA0005A874987452B09F42CC20091F40500FF9F
:101CB00044C21092F4051092060610920706109284
:101CC000080610920906A985BA855E962D913D9168
:101CD0004D915C91919729833A834B835C8360E0BB
:101CE00070E080E09FE30E942D3B6D837E838F83B5
:101CF0009887E985FA8542A053A064A075A08688DC
:101D00009788A08CB18C11FF05C3F2E0F093050613
:101D1000A50194010E94853D9B01AC01C301B20164
:101D20000E942D3A6B017C0120E030E0A9010E9465
:101D3000233B87FFDEC229813A814B815C81CA0146
:101D4000B9010E942E3AA30192010E94853D9B0198
:101D5000AC01C501B4010E942D3A0E94243E60935B
:101D6000120670931306809314069093150618605C
:101D70001093470680919605A82FB0E0BA8BA98BE7
:101D800027E02A9FF0012B9FF00D1124E459FA4F10
:101D90008091F305848340912306509124065A874D
:101DA0004987DA019296BC91BDA3FA01F3A1FEA383
:101DB000DA019496BC91BFA3FA01F5A1F8A720918E
:101DC00001063091020640910306509104066DA170
:101DD0007EA18B2F9F2F0E942D3A69AB7AAB8BABE4
:101DE0009CAB20E030E0A9010E94233B87FF04C0A8
:101DF00019AA1AAA1BAA1CAA20910E062D8B309193
:101E00000F063E8B409110064F8B50911106588F54
:101E1000809116068D8F909117069E8FA0911806BF
:101E2000AF8FB0911906B8A3E0911A06E9A7F09117
:101E30001B06FAA720911C062BA730911D063CA774
:101E400070900A0660900B0640910C064BAF5091C3
:101E50000D065AAF809105068D87909106069DA7C5
:101E6000A0910706AEA7B0910806BFA7E0910906AA
:101E7000E8ABF0911206FEAB209113062FAB309128
:101E8000140638AF4091150649AF29A53AA54BA5D0
:101E90005CA56D8D7E8D8F8D98A10E94233B811155
:101EA000C8C352E05DAB9DA1998FAEA1AA8FBFA11F
:101EB000BB8FE8A5EC8F8EE3C82E83ECD82E8EE284
:101EC000E82E89E3F82E212C312C2101A70196015F
:101ED00029A33AA34BA35CA35D85513009F44AC4FE
:101EE000A985BA85513008F4D6C3533009F078C4B7
:101EF0005E962D913D914D915C919197C701B601F0
:101F00000E94853D4B015C012D893E894F89588D8A
:101F1000672D762D8BAD9AAD0E942D3A9B01AC01B9
:101F2000C501B4010E94453D87FD8DC32D8D3E8DB9
:101F30004F8D58A16DA17EA18FA198A50E942D3A29
:101F40009B01AC010E942E3A6B017C012D893E89D8
:101F50004F89588D672D762D8BAD9AAD0E942E3A04
:101F60009B01AC01C701B6010E942D3B6B017C01B6
:101F70007D886E88BF89BBAFE88DEAAF0D8D1E8D61
:101F8000FF8DF98328A12D8331E03D87A7019601BC
:101F9000C201B1010E942E3A1B012C0129A13AA1D4
:101FA0004BA15CA10E94233B87FF87C4A201910142
:101FB00069A17AA18BA19CA10E942D3A6B017C01A1
:101FC000980149815D816DA57EA58FA598A90E9484
:101FD000233B87FD31C33D8530930506872D962D24
:101FE000ABADBAAD80930A0690930B06A0930C0696
:101FF000B0930D06E0919705F091980581898111C4
:1020000004C09091470693FF31C0A985BA855196C7
:102010009C915197907309F470C4D296CD90DD9045
:10202000ED90FC90D5978823B1F020911E06309159
:102030001F064091200650912106672D762D8BAD0D
:102040009AAD0E94853D9B01AC01C701B6010E947B
:10205000853D6B017C01C701B6010E94710D809323
:10206000220680914706877F8093470627E0E9890B
:10207000FA892E9FC0012F9F900D1124AC01445965
:102080005A4F3A0180912206DA0116968C932091DC
:10209000FD053091FE054091FF0550910006B80105
:1020A00089819D810E94853D69877A878B879C877E
:1020B0000E940C3B6B017C016091F9057091FA055F
:1020C0008091FB059091FC050E940C3B4B015C014B
:1020D000A70196010E942D3A0E94A63B6D877E873C
:1020E0008F87988B2D853E85F30131832083232BA9
:1020F00009F00EC48091470681FF0AC48160809375
:102100004706EB960FB6F894DEBF0FBECDBFDF914A
:10211000CF911F910F91FF90EF90DF90CF90BF90E4
:10212000AF909F908F907F906F905F904F903F9077
:102130002F9008950E941709ABCD8091F3058F5F12
:10214000853009F480E08093F305282F30E052E1D8
:10215000859FC0011124DC01A756BA4F7D01B093C1
:102160009805A0939705E985FA85808950968C9308
:1021700090E080E04191519161917191D701A80F58
:10218000B91F689412F8440F551F661F771F1694E5
:10219000D1F74D935D936D937C93139704968C3098
:1021A000910541F7A985BA851C966D917D918D9118
:1021B0009C911F97B2E1B29FA001B39F500D1124D3
:1021C000FA01E756FA4F4B015C0123E0880C991C99
:1021D000AA1CBB1C2A95D1F784869586A686B7864D
:1021E0000E94D53B6093F9057093FA058093FB0537
:1021F0009093FC05E985FA8522A133A144A155A15C
:102200000E942D3B9B01AC012093FD053093FE0500
:102210004093FF055093000660E070E080EA9FE382
:102220000E942D3B60930106709302068093030683
:10223000909304061092F5051092F6051092F7059A
:102240001092F80511FD02C003FF42C06091120612
:1022500070911306809114069091150660930A06FA
:1022600070930B0680930C0690930D069B01AC01B6
:102270000E94853DA985BA8556966D937D938D9371
:102280009C935997077F0093F405D70151961C92B0
:1022900080919A0681FF0FCDE985FA85818985FFB6
:1022A0000ACD26A537A540A951A960E070E080E8D5
:1022B0009FE30E942D3B60931E0670931F06809340
:1022C000200690932106E1E0D7015196EC93F3CCE0
:1022D000E985FA8566897789808D918D0E94243EF3
:1022E00060930A0670930B0680930C0690930D067C
:1022F000CCCFC0920606D0920706E0920806F09274
:1023000009061092120610921306109214061092EB
:1023100015062DCD1092050640921606509217060E
:10232000609218067092190612FF6AC01092120687
:10233000109213061092140610921506C12CD12C7F
:10234000760189859A850E94A408698B7A8B8B8B8C
:102350009C8B9B01AC010E94853D69877A878B87A6
:102360009C87A50194010E94233B87FF93C0298588
:102370003A854B855C85C501B4010E942D3A2D81BB
:102380003E814F8158850E94853D9B01AC01C30170
:10239000B2010E942D3A609316067093170680933F
:1023A00018069093190620E030E0A9010E94233B13
:1023B00018160CF449C032E03093050629813A81A1
:1023C0004B815C81CA01B9010E942E3AA30192019E
:1023D0000E94853D9B01AC01C501B4010E942D3ACC
:1023E0000E94243E60931206709313068093140695
:1023F000909315068091F40588608093F405B7CC1E
:10240000E0913E02EF5FEF3009F4E0E08091690572
:10241000C12CD12C76018E1751F026E32E9FF001AE
:102420001124E15CFD4FC688D788E08CF18CC70190
:10243000B6010E94243E60931206709313068093A7
:102440001406909315067DCFA701960169857A85BC
:102450008B859C850E942D3A2D813E814F81588528
:102460000E94853D60931A0670931B0680931C069C
:1024700090931D0689899A89AB89BC8980930E0641
:1024800090930F06A0931006B093110693E09093DB
:1024900005066DCCA7019601C501B4010E942D3A35
:1024A0002D813E814F8158850E94853DA301920177
:1024B0000E942E3A20E030E040E05FE30E94853D3C
:1024C0006D877E878F87988B20E030E0A9010E947E
:1024D000453D18160CF094C0A30192016D857E85D0
:1024E0008F8598890E94233B87FF88C0A7019601AA
:1024F00069857A858B859C850E942D3A2D813E8148
:102500004F8158850E94853D9B01AC0120931A069E
:1025100030931B0640931C0650931D066D857E85E7
:102520008F8598890E94453D1816BCF529893A89FE
:102530004B895C8920930E0630930F06409310065A
:1025400050931106A501940169857A858B859C8538
:102550000E94233B811104C031E03093050607CC73
:10256000A501940169857A858B859C850E942D3A09
:102570002D813E814F8158850E94853D9B01AC0194
:10258000C301B2010E942D3A60931606709317069C
:102590008093180690931906EACB8D859E85AF85AA
:1025A000B8898093160690931706A0931806B093E7
:1025B000190680931A0690931B06A0931C06B093ED
:1025C0001D0629813A814B815C81CA01B9010E94B3
:1025D0002E3A2D853E854F8558890E94853DA7015D
:1025E00096010E942E3A0E94243E60930E0670933C
:1025F0000F068093100690931106B9CB92E047CF57
:102600008091120690911306A0911406B0911506C0
:1026100010921606109217061092180610921906BC
:1026200080930E0690930F06A0931006B0931106A8
:102630009ECB81E08DAB37CC098F1A8F39813B8FD0
:102640004D814C8F49CC20E030E040E05FE3C50194
:10265000B4010E94853D9B01AC01672D762D8BADA9
:102660009AAD0E942D3AA70196010E94853D9B01DB
:10267000AC01698D7A8D8B8D9C8D0E942D3A8B01DA
:1026800089839D83A5019401672D762D8BAD9AAD2D
:102690000E942D3A6AC05E962D913D914D915C91BC
:1026A0009197C701B6010E94853D4B015C0120E076
:1026B00030E040E05FE30E94853D272D362D4BAD95
:1026C0005AAD0E942E3AA70196010E94853D9B01BA
:1026D000AC01698D7A8D8B8D9C8D0E942D3A8B017A
:1026E00089839D839B01AC016D8D7E8D8F8D98A11B
:1026F0000E94453D18168CF52D8D3E8D4F8D58A1AD
:102700006DA17EA18FA198A50E942D3A9B01AC01DD
:102710000E942E3A6B017C012D893E894F89588D8C
:10272000672D762D8BAD9AAD0E942E3A9B01AC01A0
:10273000C701B6010E942D3B6B017C017D886E882C
:10274000BF89BBAFE88DEAAFFDA9FD870D8D1E8D5A
:102750002F8D298338A13D8319CCA5019401672DC4
:10276000762D8BAD9AAD0E942E3A762E672E8BAFCA
:102770009AAF0CCC2D893E894F89588DC701B6017F
:102780000E94853D9B01AC01698D7A8D8B8D9C8D5E
:102790000E942D3A8B0189839D8329A53AA54BA5DB
:1027A0005CA50E94233B87FFF1CB29A53AA54BA549
:1027B0005CA5698D7A8D8B8D9C8D0E942D3A2D891B
:1027C0003E894F89588D0E942D3B6B017C0109A5E4
:1027D0001AA54BA549835CA55D8382E08D87D6CB86
:1027E0005E962D913D914D915C919197C701B601F7
:1027F0000E94853D4B015C01AC019B01672D762D4C
:102800008BAD9AAD0E94453D181644F520E030E0AE
:1028100040E05FE3C501B4010E94853D9B01AC012E
:10282000672D762D8BAD9AAD0E942D3AA7019601AA
:102830000E94853D9B01AC01698D7A8D8B8D9C8DAD
:102840000E942D3A8B0189839D832DA53EA54FA51E
:1028500058A90E94453D18160CF414CF2DA53EA58D
:102860004FA558A9698D7A8D8B8D9C8D0E942D3A2C
:102870009B01AC010E942E3A6B017C012EA93FA95D
:1028800048AD59AD672D762D8BAD9AAD0E942E3A8D
:102890009B01AC01C701B6010E942D3B6B017C017D
:1028A0007EA86FA8B8ADBBAFE9ADEAAF0DA51EA578
:1028B000FFA5F98328A92D8369CB29A93AA94BA99A
:1028C0005CA9B80189819D810E94453D18168CF450
:1028D0002EE333EC4EE259E369A17AA18BA19CA1CE
:1028E0000E942E3A69A37AA38BA39CA3A201910113
:1028F00063CB4D854093050671CB10925106109223
:102900005206109253061092540610922206A9CB3A
:102910002091F5053091F6054091F7055091F805A5
:10292000C201B1010E942E3A2B013C0129853A8552
:102930004B855C85C501B4010E942D3A9B01AC0119
:10294000C301B2010E942D3B4B015C0120EC31EE32
:1029500044E65EE40E94853D0E940C3B0E94A63B3B
:10296000603D57E075078105910508F066C027E0D6
:10297000A989BA892A9FF0012B9FF00D1124E459EF
:10298000FA4F158227E0A989BA892A9FF0012B9F67
:10299000F00D1124E459FA4F7383628380916B0523
:1029A000809396058F5F863009F4A1C080936B05F4
:1029B000E0912306F0912406C801A981BD8182A37C
:1029C00093A3A4A3B5A3C092F905D092FA05E0920F
:1029D000FB05F092FC0529853A854B855C85C7018E
:1029E000B6010E942D3AA50194010E94853D609395
:1029F000F5057093F6058093F7059093F8052091FF
:102A00000606309107064091080650910906B80164
:102A100089819D810E94233B811120C9F090470646
:102A200020E030E0A901B80189819D810E94453DE7
:102A300018160CF05FC08F2D61CB603A3FE0730732
:102A400081059105A0F5A7E049895A89A49FF00165
:102A5000A59FF00D1124E459FA4FB1E0B583A7E02A
:102A600049895A89A49FF001A59FF00D1124E459CA
:102A7000FA4F2581022E04C0969587957795679524
:102A80000A94D2F74D855E8502C0440F551F2A95E2
:102A9000E2F7518340836115710551E08507910587
:102AA00008F470CF4FEF5FEF5383428377CF6034EA
:102AB000EFE17E078105910568F447E029893A89AD
:102AC000429FF001439FF00D1124E459FA4F52E068
:102AD0005583C5CF27E0A989BA892A9FF0012B9F8A
:102AE000F00D1124E459FA4F33E03583B8CF10923A
:102AF0006B055ECFF2FC9FCF109224061092230646
:102B000090913E0280916905891709F4A7C881E078
:102B1000890F8F3009F480E020913D02921302C0AA
:102B200080933D0280933E0299C890914406911192
:102B30000EC081110DC010925106109252061092D3
:102B40005306109254060E94C80310924F0608952F
:102B5000803189F42D9890919A0691FF05C08032BA
:102B600019F440E050E0BA01CB01BA010E94710DA6
:102B70000E94B903EACF2D9AEECF2F923F924F9247
:102B80005F926F927F928F929F92AF92BF92CF92FD
:102B9000DF92EF92FF920F931F93CF93DF93CDB706
:102BA000DEB7A4970FB6F894DEBF0FBECDBF00917D
:102BB0002606002309F457C081E0809343068BEC7E
:102BC00093E00E94AE051FEF100F193028F5E12F9A
:102BD000F0E0E351FA4E0C94D03EF61556165B1613
:102BE0005E165E1661160C166116611684EC91E095
:102BF0000E94AE050E94FC0AF82E80FF03C088E503
:102C00000E94FC03F1FE03C089E50E94FC03F2FE72
:102C100003C08AE50E94FC030E949E0783EA91E0BC
:102C20000E94AE05802F0E9489050E94C60584EF90
:102C300091E00E94710C123088F48BEC93E00E94BA
:102C4000AE058CE194E00E94AE050E949E0780E1F3
:102C50000E94EE028091250684FFFCCF8FB7F89486
:102C6000109226068FBF10912506112309F401C288
:102C700014FF2AC081E080934406A4960FB6F8940E
:102C8000DEBF0FBECDBFDF91CF911F910F91FF909F
:102C9000EF90DF90CF90BF90AF909F908F907F90FC
:102CA0006F905F904F903F902F9008958BEB91E045
:102CB0000E94AE05B1CF85EB91E0FACF8FEA91E0AB
:102CC000F7CF8AEA91E0F4CF10FF9CC08CE0EAE2F3
:102CD000F6E0DE01599601900D928A95E1F7BE016A
:102CE000675E7F4FCE010D960E943C038CE30E94ED
:102CF000FC0380914306843009F4C6C008F099C0F3
:102D0000813009F4C4C008F4A5C0823009F4C2C0FF
:102D100080918906282F2170922E80FFBEC080915D
:102D20005006882309F4B9C08BED91E00E94AE05EE
:102D3000CE010D960E94EF048091890681FF1DC08F
:102D400083ED91E00E94AE059091690580913E026D
:102D5000981708F4F0C0825F891B0E9489058CE2F5
:102D60000E94FC038091110290911202981708F4BE
:102D7000E4C08058891B0E9489050E9417097C01C4
:102D80008FEC91E00E94AE05F70162897389848916
:102D90009589EF2809F4D3C0611571058105910566
:102DA00011F00E9471058CE70E94FC0386B18072CD
:102DB00090912906891709F4C6C080E50E94FC039A
:102DC0000E94FC0A082F88E500FF80E30E94FC03B4
:102DD00089E501FF80E30E94FC038AE502FF80E3AE
:102DE0000E94FC0380915006882309F4AEC08150F4
:102DF000809350068EE30E94FC030E94C60581E08A
:102E00000E94EE02812F887C09F4EFC08091430676
:102E1000982F937009F4B2C017FFE4C08091430665
:102E2000813009F0DCC080914506856080934506BD
:102E3000D6C08031A1F030F4883009F069CF80E04D
:102E400092E00AC08032E9F0803809F061CF8FED5E
:102E500091E002C084E092E00E94AE0559CF8091DB
:102E6000450687FD0EC08AEF91E00E94AE05809175
:102E7000450680FF04C080E30E94FC0349CF81E344
:102E8000FBCF86EF91E0E8CF81EF91E0E5CF8BEECD
:102E900091E0E2CF85EE91E0DFCF4090E5065090E3
:102EA000E6066090E7067090E8065DECA52E56E019
:102EB000B52ECE0101966C01FE013D967F0100E02A
:102EC000F50161917191819191915F012085318529
:102ED000428553850E942E3AF60161937193819346
:102EE00091936F01023041F4A30192010E942E3AA6
:102EF00069877A878B879C87911012C0F601349777
:102F00002081318142815381F70160817181828109
:102F100093810E942D3AF7016083718382839383AA
:102F20000F5FF4E0EF0EF11C033051F69110FCCE70
:102F300087ED91E0FBCE81500FCF81501BCF80E316
:102F40000E94FC0330CF80E339CF809143068C731D
:102F500099F08DE18093500680914F06811103C056
:102F600081E080934F068BEC91E00E94AE05CE018C
:102F700001960E94EF043ECF89E0ECCF8872A9F061
:102F800080914506807C89F40E94780382E08093DA
:102F9000470680914306803241F480E217FD0CC061
:102FA0008091450680688093450680914306811193
:102FB00003C091E09093450616FF07C085FD05C04C
:102FC0009091450690649093450613FF25CF807A33
:102FD00009F022CF80E18093430617FF03C080E809
:102FE0008093430688EC0E94EE0211FF1CC0812FE3
:102FF0008874B1F480914306882309F4D3C084FF18
:103000000FC09091450690FF0BC0803109F0CAC0F7
:1030100080914E06882309F4C5C0886080934E06CF
:1030200082E00E94EE0212FF24C09091450680913A
:103030004306807909F4CFC0809146068111CBC048
:1030400097FDCBC00E94780380913E0280933D02A1
:103050000E942F098091470681FF05C09091450687
:10306000916090934506897F8093470684E00E9493
:10307000EE0290912706992309F44CC08FB7F8947B
:10308000109227068FBF40914B06842F90FD84E657
:1030900091FD865F92FD8A5093FD8F5F94FD815074
:1030A000893C08F088EC8A3008F48AE030914C06BC
:1030B000232F95FD24E696FD22E397FD29E1481391
:1030C00002C0231739F180934B0620934C061092CF
:1030D0004F0670903E0260906905172D89E9282EF1
:1030E00096E7392E26E9422E3EE7532E46E3842EFC
:1030F000161182C0C101D2018093190190931A0167
:10310000A0931B01B0931C010E94780370923D02B2
:103110000E942F0910912806112309F43BC08FB794
:10312000F894109228068FBF90914D06892F10FDBC
:1031300084E611FD865F12FD8A5013FD8F5F14FD3A
:103140008150893C08F088EC8A3008F48AE09817AE
:10315000A1F09091430680934D069111A3C0409138
:10316000B4065091B5066091B6067091B70680918D
:10317000B2060E94951510924F0615FF0BC0809164
:103180004306803139F480914E06811191C082E06E
:1031900080934E06809143068C7B09F46ECD0E948D
:1031A000100E6BCD109247060E941709892B71F003
:1031B0008091450686FD0AC01092450688E08093FE
:1031C00043060E94100E0E943E0C2ACF1092450624
:1031D0001092430625CF97FF0AC0109247060E941F
:1031E000F40C0E94C10C0E94340B0E9482081092C1
:1031F0004506109243063ACFA12EB12C189DC0016E
:103200001124815C9D4F0E94A408962EC72ED82EB3
:10321000092F9101A2010E94453D8A9C70018B9C5F
:10322000F00C11249701215C3D4F790118168CF5A3
:103230009101A201B101C2010E94853DF701628F97
:10324000738F848F958F8A9CC0018B9C900D112465
:103250009C01215C3D4F7901F90126A037A040A4D3
:1032600051A4A2019101628D738D848D958D0E9470
:10327000453D18162CF4F701228E338E448E558E60
:103280001F5F1F3009F410E0292C3C2C4D2C502ED0
:103290002FCF292D3C2D4D2D502F692D7C2D8D2D7F
:1032A000902FCACF8091470688608093470663CFEE
:1032B00080FF75CF84606CCFCF92DF92EF92FF9248
:1032C000CF93DF930E94BD1580914506882309F4B2
:1032D00055C00E941709009769F4C091B206C090CA
:1032E000B406D090B506E090B606F090B706C0736D
:1032F000D1E024C0FC01C189C073C2A8D3A8E4A84E
:10330000F5A8F5CF90914406911138C080FF14C004
:103310009091430697FF5EC082FD15C010924E0645
:1033200040E050E0BA0180E00E949515809145068A
:103330008D7F8460809345060E94BD15809145066F
:103340008111E0CF1BC0903819F58BEC93E00E94FF
:10335000AE0581ED93E00E94AE050E949E0740E01D
:1033600050E0BA0180E00E9495150E947B0C80E33A
:103370000E94590C80914406882339F0DF91CF9147
:10338000FF90EF90DF90CF9008950E94BD15F2CF8F
:1033900083FFD2CF9091B206992359F081FD09C0E5
:1033A00080919A0681FF10C08091470688608093C3
:1033B00047068091450681FDBFCF80618093450619
:1033C00082E00E94F802B8CFB701A6018C2F0E94BC
:1033D0009515EFCF80914E068823C9F181FF0DC06E
:1033E0008091B206882351F140E050E0BA0180E0BC
:1033F0000E949515D0934E069FCF8C7009F49CCFF8
:103400008091B206882399F08BEC93E00E94AE0580
:1034100087ED93E00E94AE050E949E0780919A0678
:1034200081FF0FC080914706886080934706809196
:103430004E0683FF03C082E00E94F80210924E06FF
:103440007BCFB701A6018C2F0E949515F0CF8091FC
:10345000470683FF71CFB701A6018C2F0E949515F7
:1034600080914706877F8093470666CF0E94270991
:103470000E945C1980914406811108C00E941709BE
:10348000892BB1F780914306883091F30895CF934B
:10349000DF9391E5899FE0011124C055DD4F40E5A0
:1034A00050E0BE0182E297E00E94BC0B892B79F4C8
:1034B000109222070E94361A40E550E062E277E05F
:1034C000CE010E94670B80E0DF91CF91089581E0EB
:1034D000FBCF0E94361A109250060895CF92DF92C9
:1034E000EF92FF92CF9390914306923079F06A0168
:1034F0007B01C82F0E94361AB701A6018C2FCF91ED
:10350000FF90EF90DF90CF900C949515CF91FF90A6
:10351000EF90DF90CF9008950F931F93CF93C82F14
:103520008B010E94361A2DE0C29FC00111244CE08D
:1035300050E0B8019E5FCF911F910F910C94670BE3
:103540001F93CF93DF93182FEB018DE0189FB001ED
:1035500011247E5F4CE050E0CE010E94BC0B892B11
:1035600071F48CE0FE0111928A95E9F7BE01812F7A
:103570000E948C1A80E0DF91CF911F91089581E025
:10358000FACFEF92FF920F931F93CF93DF93CDB7B4
:10359000DEB72C970FB6F894DEBF0FBECDBF182F45
:1035A00080FF0BC085E5E9E6F3E0A5E5B6E0059010
:1035B0000D928A95E1F70E94A20B11FF10C0CE0177
:1035C00001967C018CE0F70111928A95E9F700E001
:1035D000B701802F0E948C1A0F5F0830C9F712FFC5
:1035E00014C060E080EB92E00E943A0B60E081EB57
:1035F00092E00E943A0B60E081E093E00E943A0B77
:1036000060E082E093E00E943A0B13FF0AC060E0A2
:103610008EEA93E00E943A0B60E08FEA93E00E940A
:103620003A0B2C960FB6F894DEBF0FBECDBFDF91DC
:10363000CF911F910F91FF90EF9008952F923F929D
:103640004F925F926F927F928F929F92AF92BF92B2
:10365000CF92DF92EF92FF920F931F93CF93DF935E
:10366000CDB7DEB7C254D1090FB6F894DEBF0FBE96
:10367000CDBF3B0100916905202E312C26E3029F2E
:10368000A0011124BA01615C7D4F7CAB6BABFB01E7
:1036900011922A95E9F7F3012085FB01218BF301B3
:1036A0004481558166817781EBA9FCA942AB53AB7C
:1036B00064AB75ABF3014185528563857485EBA9D5
:1036C000FCA9428B538B648B758B21FFF0C02CE0DF
:1036D000EAE2F6E0DE01599601900D922A95E1F7B3
:1036E00089AB9AAB25E536E021963FAF2EAF219707
:1036F000BE01635F7F4F7EAF6DAFCE0149969CAF39
:103700008BAFEBA9FCA9FAAFE9AF9E012B5D3F4F50
:103710003EAB2DAB38AF2FAB10E086E3829D20018E
:10372000839D500C1124B201615C7D4F2B01CB01B4
:103730000C9623969FAF8EAF239790E1490E511CB4
:10374000E9A9FAA96191719181919191FAABE9ABE3
:103750002196EEADFFAD219781909190A190B1900F
:103760002196FFAFEEAF2197A50194010E94853D00
:103770000E94523DEDADFEAD6193719381939193A3
:10378000FEAFEDAFEBADFCADC190D190E190F1900B
:10379000FCAFEBAF6C197D098E099F099B01AC0151
:1037A00097FF07C022273327A901261B370B480B99
:1037B000590BE9ADFAAD2193319341935193FAAF8F
:1037C000E9AF2396EEADFFAD2397C080D180E280B4
:1037D000F380C216D306E406F50610F469017A01F7
:1037E0002396EEADFFAD2397C082D182E282F382B1
:1037F0000E94D73BA50194010E942D3BEFA9F8AD93
:103800006193719381939193F8AFEFAB20E030E037
:10381000A9010E94233B87FF0BC090E2112321F0F6
:1038200090E8113009F490E4F2018081892B8083C3
:103830001F5F133009F084CF80E0CD28CE28CF2839
:1038400009F4CBC0CE0185960E94050D4B015C01A9
:1038500026E3229DC001239D900D11249C01215C33
:103860003D4F7901F90182A293A2A4A2B5A2BE01A3
:103870006B5D7F4F8DE696E00E949A0AF701668F96
:10388000778F80A391A3BE016B5D7F4F81E696E0A9
:103890000E949A0AF70162A773A784A795A71189C6
:1038A00010FF09C066A777A780AB91AB10C02CE0D2
:1038B000E1E0F1E00FCFF3012081318142815381BA
:1038C00013FDA5C0F70126A737A740AB51AB8091E8
:1038D0003E02081711F011FFA0C086E3829DF0019F
:1038E000839DF00D1124E15CFD4F168A178A108E1E
:1038F000118E16A217A210A611A686E3829D800142
:10390000839D100D1124015C1D4FF801818981FDFB
:1039100063C08BA99CA90E94A4086B017C018090C4
:10392000190190901A01A0901B01B0901C01AC01EC
:103930009B01C501B4010E94233B87FF36C1A5014D
:103940009401C501B4010E94853DF801628F738F17
:10395000848F958F86E3829D8001839D100D1124B5
:10396000015C1D4FF80186A097A0A0A4B1A4A501F9
:103970009401628D738D848D958D0E94453D18163E
:103980002CF4F801828E938EA48EB58EC09219010C
:10399000D0921A01E0921B01F0921C018CE0FE0112
:1039A000B596ADE0B1E001900D928A95E1F78CE01B
:1039B000FE013D96A1E0B1E001900D928A95E1F7FC
:1039C00080910001809369058F5F8F3009F480E05A
:1039D000809300010E942F0981E0CE5BDF4F0FB67C
:1039E000F894DEBF0FBECDBFDF91CF911F910F9135
:1039F000FF90EF90DF90CF90BF90AF909F908F900F
:103A00007F906F905F904F903F902F900895C501E9
:103A1000B4010E94853DF70145CF2DE031E03AAB7E
:103A200029AB8E010F5F1F4F6DA97EA9645F7F4F89
:103A30007CAF6BAFC12CD12C76010FAB19AFE9A9CC
:103A4000FAA981909190A190B190FAABE9ABEDA960
:103A5000FEA94190519061907190FEABEDABA30136
:103A60009201C501B4010E94853D9B01AC01C701D3
:103A7000B6010E942D3A6B017C01A5019401C3019E
:103A8000B2010E942D3AF801619371938193919351
:103A90008F012BAD3CAD6DA97EA92617370779F6AE
:103AA0002FEE3FEF4FE75FE3C701B6010E94453DB0
:103AB00018164CF486E3829DF001839DF00D1124CD
:103AC000E15CFD4F16CF2FEE3FEF4FE75FEBC701F5
:103AD000B6010E94233B87FF11C086E3829DF0015F
:103AE000839DF00D1124E15CFD4F89E996E7A6E97D
:103AF000BEE786A397A3A0A7B1A7FFCE8FA999ADD4
:103B00000E94050D6FA979AD8DE696E00E949A0A94
:103B10004B015C01A701960160E070E080E89FE343
:103B20000E942D3A20E030E040E05FE30E94853DB6
:103B30000E94243E6B017C0120918A0630918B0605
:103B400040918C0650918D06C501B4010E94853DBF
:103B5000A70196010E94853D4B015C01A7019601DA
:103B600060E070E080E89FE30E942D3A9B01AC0189
:103B7000C501B4010E942D3B6B017C0120E030E0C7
:103B8000A9010E94233B87FF03C0C12CD12C7601E1
:103B900086E3829DF001839DF00D1124E15CFD4FD1
:103BA000C6A2D7A2E0A6F1A6A8CEA7019601C7019A
:103BB000B601C9CEFF920F931F93CF93DF938C0171
:103BC000EB0180919A0685FF23C0F090430680E2C6
:103BD000F81611F1C8010E9401038823C9F081E0A1
:103BE0008093460688E0F8120CC00E94F8020E94FA
:103BF0005C198091440681110BC0809143068111AC
:103C0000F6CF0E949E0C82E00E94E8020E945C199E
:103C100080914306823041F10E945C1980914406F4
:103C2000811122C090913E0280910001981303C03F
:103C30000E942709F1CFBE01C8010E941E1B8111FD
:103C400013C080919A0681FF0FC0888584FF0CC045
:103C50004C815D816E817F8180E1DF91CF911F91E9
:103C60000F91FF900C946E1ADF91CF911F910F91DD
:103C7000FF9008952F923F924F925F926F927F92A2
:103C80008F929F92AF92BF92CF92DF92EF92FF926C
:103C90000F931F93CF93DF93CDB7DEB7CE54D109E7
:103CA0000FB6F894DEBF0FBECDBFE9EEF6E089E3B4
:103CB000DF011D928A95E9F78AE0EAEAF6E0AAEECA
:103CC000B6E001900D928A95E1F780912207843247
:103CD000A1F01E8E1FA2312C212C1EAA1DAA1BA6EC
:103CE0001F8E1BA2EE24E394F12C7AE0A72EB12CB8
:103CF000E1E68E2EE3E09E2E4FC181E08093EA063E
:103D00001092EB0683E08E8FB1E0BFA3E4CF9FEB70
:103D10009D0D9A3110F00C94CF2B8F5F8E8FBE01CA
:103D2000665E7F4FCE014E960E942902882311F4D1
:103D30000C94D22B4A8C5B8C6C8C7D8CC301B201B1
:103D40000E94683E0E94A63B062F70E090E080E053
:103D50000E94D73B9B01AC01C301B2010E942D3AE6
:103D600020E030E048EC52E40E94853D0E94F23DA4
:103D70000E94A63BCB01E7E4DE1629F1FDE4DF1645
:103D800009F466C1EAEBED0DE53108F02CC00E2E0A
:103D9000000CFF0BE253F14E0C94D03E6E20F31E4C
:103DA000F31E9C20A920B620C320F31EC720F31EBB
:103DB000D520F31EDF20E920F320F31EF31EF31EAF
:103DC000032110211D21083209F4DEC030F5043131
:103DD00060F4013108F099C0043009F474C0B0F007
:103DE0000A3009F468C084E197C00C3109F463C05B
:103DF00040F40631C0F725E1201B2093EC0616E0C5
:103E000088C00E3109F457C0063269F74BA1411141
:103E10000C94D52BA2E0ABA328C00D3309F4AFC09E
:103E2000E0F4053309F44FC088F40B3211F001338C
:103E3000D1F6BBA1B1110C94D52B013309F096C07A
:103E40001092EF06E3E0EBA318E04FC00C3358F6F6
:103E500006530093F00619E05CC00C3508F50A35EE
:103E600008F074C0003509F0BECF0093EA0611E0F7
:103E7000063209F04EC08431910551F08E31910522
:103E800039F08832910521F08233910509F0ABCFEA
:103E9000B5010E949A3E66576093EA0611E025C07C
:103EA0000C3549F00F3508F09ECF2EE5201B2093EE
:103EB000EB0615E02EC0009731F42BA121110C94D4
:103EC000D52B31E03BA30093E906202F2D7F2C3129
:103ED00019F010E00C35E9F4009719F00A9709F091
:103EE00082CF600F6093E90610E0C701012E02C087
:103EF000880F991F0A94E2F72DA93EA92823392398
:103F0000232B09F443C085E107C001510093EE065D
:103F100012E0892B51F387E1C25BDF4F0FB6F894B3
:103F2000DEBF0FBECDBFDF91CF911F910F91FF90EC
:103F3000EF90DF90CF90BF90AF909F908F907F9049
:103F40006F905F904F903F902F900895892B29F4A8
:103F50000A550093ED0613E0C8CF6A30710509F0E9
:103F600042CF0A3509F43FCF14E0BFCF0A9709F0DA
:103F70003ACFF1E0F093EF0623E02BA365CF892B36
:103F800009F031CF1AE0B1CF17E0C3CFADA9BEA978
:103F9000A82BB92BBEABADAB8E8DE82FF0E0EE5D5C
:103FA000F84FD080D110B3CEAF8DAA2329F0BBA19A
:103FB000B11102C0E2E0EBA325FE0FC0809105071E
:103FC00090910607A0910707B0910807813896499C
:103FD000A849B10514F00C94E12B2FA1222309F478
:103FE00039C120FE49C18091EC068130B1F423E350
:103FF00033E34BEC51E46091F4067091F506809147
:10400000F6069091F7060E94853D6093F406709342
:10401000F5068093F6069093F70630FC10C0809169
:10402000B4069091B506A091B606B091B7068093FC
:10403000110790931207A0931307B0931407809170
:10404000E906843009F033C126FC2FC18CE164CF2E
:10405000892B09F060CF0A3078F4083040F503303E
:10406000B0F0063008F0BFCE0430E9F080E1053052
:10407000D9F41092F2061AC0023171F10E3159F0E2
:10408000013109F0B0CE88E40E94590C10C0002321
:1040900029F0013031F00093F10603C0B3E0B09392
:1040A000F1061BE004C080E28093F2061CE0C70129
:1040B000012E02C0880F991F0A94E2F72DA93EA98C
:1040C00028233923232B09F01ECFEDA9FEA9E82BC5
:1040D000F92BFEABEDAB60CF80E3D6CF4092F40678
:1040E0005092F5066092F6067092F70610E06701AE
:1040F000012E02C0CC0CDD1C0A94E2F7C60182211D
:104100009321892B11F00C94DB2BC401012E02C0EA
:10411000959587950A94E2F780FF0BC020E030E088
:10412000A901C301B2010E94233B87FF02C00C9486
:10413000DE2B2C283D2830CF4092F8065092F9060D
:104140006092FA067092FB06FBA5F160FBA711E0F6
:10415000CECF4092FC065092FD066092FE06709211
:10416000FF062BA522602BA712E0C1CF40920007CB
:104170005092010760920207709203073BA53460DA
:104180003BA713E0B4CF0093040714E0B0CFC30102
:10419000B2010E949F3B60930507709306078093CE
:1041A00007079093080715E0A2CF409209075092A5
:1041B0000A0760920B0770920C0716E098CF4092A6
:1041C0000D0750920E0760920F077092100717E0CC
:1041D0008ECF40921107509212076092130770928F
:1041E000140718E084CF20E030E04FE753E4C30128
:1041F000B2010E94453D181614F40C94D82B00937C
:10420000150719E074CF4092160750921707609275
:104210001807709219074F8D41604F8F1AE067CFD2
:1042200040921A0750921B0760921C0770921D075C
:104230008F8D82608F8F1BE05ACF40921E07509265
:104240001F0760922007709221079F8D94609F8FB7
:104250001CE04DCF8091EB06813081F43BA13230E0
:1042600009F0DBCE8091EA06803509F4D6CE8823AA
:1042700009F4D3CE20FCD1CE86E14ECE8091AB06A0
:104280008111CBCE20FCAFCE8091B8069091B906BB
:10429000A091BA06B091BB068093F4069093F50600
:1042A000A093F606B093F706B8CEE89426F880916E
:1042B000EE06882359F0813009F4B7C024961FAE6A
:1042C000249792E09FAFA1E0ADAF07C042E02496F3
:1042D0004FAF249781E08FAF1DAE8091EC06813007
:1042E00061F559EEE52E56E0F52E10E000E0FF8D69
:1042F000CF2ED12CC601002E02C0959587950A9429
:10430000E2F780FF12C023E333E34BEC51E4D70123
:104310009D966D917D918D919C91D0970E94853D48
:10432000F70165A776A787A790AB0F5F1F4FF4E053
:10433000EF0EF11C03301105E9F62BA1233049F4EF
:104340008091EF06813029F43F8D85E2343009F009
:10435000E3CD8CE0EDECF6E0DE011E9601900D92CF
:104360008A95E1F78DA99EA991FD67C01091E90694
:104370001A3009F476C01C3509F414C14BA143303E
:10438000F1F18F8D8823D9F10091ED068091E5063A
:104390009091E606A091E706B091E8068FA798AB4A
:1043A000A9ABBAABBAEAAB2EB6E0BB2E89EEC82EEB
:1043B00086E0D82EF12CE12C9F8D892E912CC40102
:1043C0000E2C02C0959587950A94E2F780FD52C1A4
:1043D000F5018789908DA18DB28DF60185A796A7ED
:1043E000A7A7B0ABFFEFEF1AFF0A24E0A20EB11CA3
:1043F00034E0C30ED11C43E0E416F10401F71E3192
:1044000009F488C1153309F4ACC168EF76E086E0A1
:104410001C3109F022C10E94A01A882301F18F8D5E
:1044200081117CC11BAA1BA2A5C0B1E02496BFAF1D
:1044300024971FAEE2E0EDAF50CF8091F0068730B9
:1044400010F08DE169CD9091B006891709F48ECFF7
:10445000BE01625F7F4F0E94A01A811187CF87E063
:104460005BCD9F8D911102C08AE156CDC10180754F
:104470009927892B09F4EACD6091090770910A0701
:1044800080910B0790910C070E94683E0E94A63B0A
:104490006730B8F680910407843129F0823009F042
:1044A000A2CC27FCA0CC662309F470C061506BAB92
:1044B00068EF76E08BA90E94A01A882381F2B09160
:1044C0000407BFA74090E5065090E6066090E70617
:1044D0007090E80649EEE42E46E0F42E10E000E08D
:1044E000EF8DCE2ED12CC601002E02C0959587955A
:1044F0000A94E2F780FF33C0D7019D968D909D907E
:10450000AD90BC90D097BFA5B43109F043C0F8017D
:10451000EE0FFF1FEE0FFF1FE655F94F27A530A93D
:1045200041A952A96789708D818D928D0E942D3A83
:10453000A50194010E942D3AF7016787708B818B4A
:10454000928B023061F4A30192010E942D3A609394
:1045500000077093010780930207909303070F5F92
:104560001F4FB4E0EB0EF11C0330110509F0BBCF77
:10457000EFEA2E228091EA068FA7803509F0F8C075
:104580009F8D992309F4FEC08FE1C6CCA091F0065F
:10459000ABAB8ECFD7011F968D929D92AD92BC9200
:1045A0005297DDCFFF8DFF2309F45ECF4090E506E3
:1045B0005090E6066090E7067090E8069AEAC92EE9
:1045C00096E0D92E5E012EE0A20EB11C29EEE22E5D
:1045D00026E0F22E10E000E08F2E912CC401002E78
:1045E00002C0959587950A94E2F780FF38C0D501FF
:1045F0002D913D914D915C91F6016789708D818D72
:10460000928D0E942D3AD7019D962D913D914D910D
:104610005C91D0970E942D3AF70165A776A787A7EE
:1046200090AB023061F4A30192010E942D3A609395
:104630001E0770931F0780932007909321070F5F39
:104640001F4FF4E0CF0ED11C24E0A20EB11C34E0C9
:10465000E30EF11C0330110509F61BAA8BCFF601FE
:1046600087A590A9A1A9B2A9F70185A796A7A7A791
:10467000B0ABE5CF153309F4B5CED6019D964D907C
:104680005D906D907C90D097011133C0F701EE0FD3
:10469000FF1FEE0FFF1F2EE030E02C0F3D1FE20F3B
:1046A000F31FD5019F962D913D914D915C91D2972D
:1046B00060817181828193810E942E3AA3019201CF
:1046C0000E942E3AF60165A776A787A790ABF2E085
:1046D000EF1288CE2FA538A949A95AA90E942E3ACF
:1046E00060931E0770931F07809320079093210704
:1046F00079CEA3019201D50157966D917D918D914F
:104700009C915A970E942E3AF60165A776A787A733
:1047100090AB68CE68EF76E087E07DCEAAEAB6E09F
:10472000E9EEF6E090E080E04F8D242F30E0A90123
:10473000082E02C0559547950A94E2F740FD0AC03D
:1047400057964D915D916D917C915A974787508B0B
:10475000618B728B0196149634968330910539F7EC
:104760007CCF8091EA06823008F477CF8EE1D4CBFB
:10477000ABA1A23039F4BFA5B1117CC0EF8DEE23FF
:1047800009F496C02FA12170EFA1C101E0FFD8C2AA
:104790008E7DFBA1F111937E892B11F00C94EA2BF5
:1047A0008E010F5F1F4F8DE0D8011D928A95E9F7AA
:1047B000222309F4C8C28DA99EA9867B892B11F0FA
:1047C0000C94ED2B8091E906853319F081110C943E
:1047D000ED2B8091B4069091B506A091B606B091EC
:1047E000B7068D839E83AF83B8878091B2064091D0
:1047F000F4065091F5066091F6067091F70649832C
:104800005A836B837C8384608987809105079091AC
:104810000607A0910707B09108078A879B87AC8796
:10482000BD8780919A0685FF06C086E197E00E94C9
:1048300001038111D5C7B80186E197E00E94DA1D16
:104840008091430681110BC00E941709892B39F012
:1048500080E2809343060E94100E0E943E0C8CE082
:10486000E6E1F7E0A1ECB6E001900D928A95E1F760
:1048700080E052CB20E030E0A9016091F406709115
:10488000F5068091F6069091F7060E94233B882357
:1048900009F4F2CCFFA5FC38B9F060F4F23059F11C
:1048A000F33061F1F13009F06DCF3F8D31116ACFF6
:1048B0001BA268CF2FA52E3839F018F02F3809F039
:1048C00061CF9FA190619FA38FA58E58823018F46D
:1048D000AFA1A860AFA3BF8DBB2309F4C5CD4CE049
:1048E00050E066E177E081EC96E00E94F03E892B93
:1048F00009F048CF69C04FA144604FA38F8D882332
:1049000009F4B2CD9DAD092F10E0BFADAB2FB0E0E3
:10491000BAAFA9AF81E090E07C010DAC02C0EE0C13
:10492000FF1C0A94E2F70FAC02C0880F991F0A948B
:10493000E2F7E82AF92AEF8D8E2F90E08E219F2151
:10494000892B09F441C7C801880F991F880F991F47
:10495000FC01E751F94F8655994FDC0157962D918F
:104960003D914D915C915A9765A576A587A590A933
:104970000E942D3A2B013C0189AD9AAD880F991FF9
:10498000880F991FFC01E751F94F8655994FDC01BB
:1049900057962D913D914D915C915A9765A576A5BD
:1049A00087A590A90E942D3A4B015C0127FEF4C017
:1049B000E89427F84CE050E066E177E081EC96E07F
:1049C0000E94F03E892B11F481E2A6CA60910D0786
:1049D00070910E0780910F07909110072091EC06BF
:1049E000213071F423E333E34BEC51E40E94853D25
:1049F00060930D0770930E0780930F079093100735
:104A000080910D0790910E07A0910F07B0911007AC
:104A10008BA79CA7ADA7BEA7A3019201C301B201BA
:104A20000E94853D2B966CAF7DAF8EAF9FAF2B97CD
:104A3000A5019401C501B4010E94853D2F966CAF7C
:104A40007DAF8EAF9FAF2F9720E030E040E850E47D
:104A50006BA57CA58DA59EA50E94853D2BA53CA59B
:104A60004DA55EA50E94853D2B962CAD3DAD4EAD6E
:104A70005FAD2B970E942D3A2F962CAD3DAD4EADDC
:104A80005FAD2F970E942D3A6B017C0120E030E052
:104A9000A9010E94233B87FD9AC6C701B6010E9467
:104AA000243E6B017C012F962CAD3DAD4EAD5FAD2C
:104AB0002F972B966CAD7DAD8EAD9FAD2B970E9441
:104AC0002E3A0E94243E9B01AC01C701B6019058CA
:104AD0000E942D3B6B017C019FA5933021F4F7FAD6
:104AE000F094F7F8F09420E030E0A9016BA57CA5E4
:104AF0008DA59EA50E94233B87FF11C0F7FAF09475
:104B0000F7F8F0948BA59CA5ADA5BEA5B0588093F1
:104B10000D0790930E07A0930F07B0931007000F97
:104B2000111F000F111F0351194FA7019601C50155
:104B3000B4010E94853D9B01AC01C301B2010E94FA
:104B40002D3A20E030E040E05FE30E94853DD8014F
:104B50001B966D937D938D939C931E9709AD1AAD13
:104B6000000F111F000F111F0351194FA7019601CC
:104B7000C301B2010E94853DA50194010E942E3A15
:104B800020E030E040E05FE30E94853DF80163876C
:104B9000748785879687F6CD3BA5232F30E03CA709
:104BA0002BA7E222F32283E2EF2809F4B5C941EFF3
:104BB00024228091EC06813061F539EEC32E36E077
:104BC000D32EF12CE12C8BA59CA50E2C02C0959523
:104BD00087950A94E2F780FF12C023E333E34BEC9E
:104BE00051E4D6011F966D917D918D919C915297C4
:104BF0000E94853DF6016787708B818B928BFFEF5A
:104C0000EF1AFF0A24E0C20ED11C33E0E316F104D0
:104C1000D1F6F801EE0FFF1FEE0FFF1FE351F94F22
:104C2000C384D484E584F684A7019601C301B2014C
:104C30000E942D3A2B013C01E9ADFAADEE0FFF1FAA
:104C4000EE0FFF1FE351F94F83859485A585B68547
:104C50008BA79CA7ADA7BEA79C01AD01C501B40160
:104C60000E942D3A4B015C01A3019201C301B201E4
:104C70000E94853D2B013C01A5019401C501B401B1
:104C80000E94853D9B01AC01C301B2010E942E3AF6
:104C90000E94243E4B015C01A7019601C701B601A9
:104CA0000E94853D6B017C012BA53CA54DA55EA511
:104CB000CA01B9010E94853D9B01AC01C701B60143
:104CC0000E942E3A0E94243E6B017C01C0920D0787
:104CD000D0920E07E0920F07F0921007AC019B01F3
:104CE000C501B4010E942D3A4B015C01E894B7F86C
:104CF0002AE037ED43EA5BE3C501B4010E94453D7C
:104D000018160CF03FCD20E030E040E05FE3C50135
:104D1000B4010E94453D18160CF456CE2FE632E140
:104D200043E85AE3C701B6010E94853D9B01AC01EF
:104D3000C501B4010E94453D18160CF023CD44CEA8
:104D40008E7D9C7F26CD80919A06F090B20681FFE1
:104D500012C08FA58150833018F0BFA1B064BFA3EB
:104D6000EF8DEE2309F41DC1FBA1F23009F019C14A
:104D70002FA120682FA38091050790910607A0918D
:104D80000707B09108078093BD069093BE06A093D5
:104D9000BF06B093C0068A879B87AC87BD8780918A
:104DA000EB068093AB06882311F088E08987809119
:104DB000F4069091F506A091F606B091F70680935F
:104DC000B8069093B906A093BA06B093BB06898340
:104DD0009A83AB83BC838090110790901207A090B8
:104DE0001307B0901407A50194016091B406709167
:104DF000B5068091B6069091B7060E94233B9FA10D
:104E00009074E92E811103C0AFA1A5FF1FC0FF2040
:104E100069F0BFA1B7FD0AC040E050E0BA01E1105F
:104E200002C0B501A4018F2D0E946E1A8091110756
:104E300090911207A0911307B09114078093B406C4
:104E40009093B506A093B606B093B706E1100CC0D8
:104E50008091B4069091B506A091B606B091B706C0
:104E60008D839E83AF83B887809115078093BC069E
:104E70008091F2069091B206981751F04D815E81B3
:104E80006F8178850E946E1A8091F2068093B20637
:104E900089859091B206892B89878091E9068430B3
:104EA00009F496C08091EE068093AE068091EC06E0
:104EB0008093AC06EBA1E33071F58091EF0680930F
:104EC000AF06811108C010921E0710921F071092A2
:104ED000200710922107C0901E07D0901F07E09076
:104EE0002007F0902107A70196016091E5067091D7
:104EF000E6068091E7069091E8060E94233B88230E
:104F000051F0C092E506D092E606E092E706F092F4
:104F1000E8060E94691A8091F0069091B0069817F1
:104F200069F08093B0068CE0FE013E96ADECB6E0F1
:104F300001900D928A95E1F70E94691A8091ED0621
:104F40008093AD068091E906863209F4B1C008F07D
:104F500072C08C3109F492C08E3109F48FC08A304E
:104F600009F476C08091EA068093AA06803509F498
:104F700081C3BBA1B23009F07DC3813009F0ACC060
:104F8000BE016F5F7F4F86E197E00E94DA1D8CE0E3
:104F9000E6E1F7E0A1ECB6E001900D928A95E1F729
:104FA00069C330E1F312E7CE9FA190748091AA0605
:104FB0008150833038F4992309F4DDCE4FA140624B
:104FC0004FA3D9CE9111D7CE8FA180628FA3D3CE1C
:104FD00080914306823009F465CFC0900907D090D4
:104FE0000A07E0900B07F0900C070E94361A20E0A9
:104FF00030E040EA51E4C701B6010E94853D0E94BD
:105000000C3B0E94A63B7B01E114F10409F44ACF5A
:10501000F1E0EF1AF10880914406811143CF0E941C
:105020005C192FEF30E742E0215030404040E1F77B
:1050300000C00000E9CF8C3509F440C0863609F481
:1050400043C0883209F08ECF61EC76E087E033C050
:1050500068EF76E08BA90E948C1A8091B0069BA91C
:10506000981380CF8CE0E8EFF6E0ADECB6E001906D
:105070000D928A95E1F70E94691A74CF8985816043
:105080008987ABA1AA2329F0B80186E197E00E94A5
:10509000DA1DB80188EF96E00E94DA1D8CE0E8EF97
:1050A000F6E0A1ECB6E001900D928A95E1F75ACFB7
:1050B00061EC76E086E00E948C1A54CF8CE0E6E149
:1050C000F7E0A9EDB6E0D3CFE9EDF6E08CE0DF0143
:1050D0001D928A95E9F7CFCF811105C0898581603E
:1050E0008987B80150CF8250823008F09DC28091EC
:1050F0000D0790910E07A0910F07B09110078BA399
:105100009CA3ADA3BEA3ADAD94E0A99F70011124F3
:10511000F701EF53F94FF8ABEFA797012850394F3C
:105120003CAB2BABD9014D905D906D907C90208174
:10513000318142815381C301B2010E942E3A6DAB8D
:105140007EAB8FAB98AFEFADB4E0EB9F8001112445
:1051500098012F53394F3CA72BA7C8018850994F6E
:105160009EAF8DAFDC018D909D90AD90BC90F9010C
:105170002081318142815381C501B4010E942E3AC0
:1051800023966CAF7DAF8EAF9FAF239777FA709465
:1051900077F87094D501C401B0588F8F98A3A9A354
:1051A000BAA3F701EA5EF84F2DA93EA94FA958AD61
:1051B00060817181828193810E942D3A6B017C0113
:1051C000F801EA5EF84F23962CAD3DAD4EAD5FADD4
:1051D000239760817181828193810E942D3A4B01D6
:1051E0005C01A7019601C301B2010E94853D69AF30
:1051F0007AAF8BAF9CAFA50194016F8D78A189A187
:105200009AA10E94853D9B01AC0169AD7AAD8BAD41
:105210009CAD0E942E3A69AF7AAF8BAF9CAFA501CF
:105220009401C301B2010E94853D4B015C01A701BD
:1052300096016F8D78A189A19AA10E94853D9B015D
:10524000AC01C501B4010E942D3A29AD3AAD4BAD78
:105250005CAD0E94AD3A6B017C019FA192FF6AC1D7
:105260002DEB37E346E055EBC701B6010E94453D03
:1052700087FD0AC02BED3FE049EC50E4C701B601C1
:105280000E942D3A6B017C0180908E0690908F06D3
:10529000A0909006B09091062BA13CA14DA15EA1DB
:1052A000CA01B9010E942E3AA50194010E942D3A2B
:1052B000A50194010E94853D0E94243E4B015C01A2
:1052C00020E030E040E05FE3C701B6010E94853D89
:1052D0002BA13CA14DA15EA10E94853D9F77A50118
:1052E00094010E942D3B0E94123C0E94A63B7AAF83
:1052F00069AFDB01AB2B09F443CE198590E080E068
:105300000E94D53B4B015C0113FF0EC0AC019B0119
:1053100069817A818B819C810E94853D69837A8332
:105320008B839C83177F1987A5019401C701B60160
:105330000E942D3B6FA378A789A79AA72496EFAD6B
:105340002497B4E0EB9FC00111248C010F53194F37
:105350008A5E984FD8012D913D914D915C91FC0151
:1053600060817181828193810E942D3AA50194010F
:105370000E942D3B2F966CAF7DAF8EAF9FAF2F97C6
:105380002FA138A549A55AA5CA01B9010E94853D9A
:105390009B01AC0160E070E080E090E40E942D3A57
:1053A0006B017C012BEA3AEA4AE25EE36FA178A541
:1053B00089A59AA50E94853D4B015C0120E030E063
:1053C00040E850E4C701B6010E942E3A9B01AC01AF
:1053D000C501B4010E94853D27966CAF7DAF8EAFAD
:1053E0009FAF279720E030E040E05FE3C701B601C0
:1053F0000E94853D2B966CAF7DAF8EAF9FAF2B97F4
:105400001BA222242394312CE9ADFAADE215F30559
:1054100009F4B6CDFBA1FC3008F0A0C0A3019201B5
:1054200027966CAD7DAD8EAD9FAD27970E94853DD3
:105430006B017C012F8D38A149A15AA12B966CAD2F
:105440007DAD8EAD9FAD2B970E94853D9B01AC013C
:10545000C701B6010E942E3A7B016C01A3019201A3
:105460002B966CAD7DAD8EAD9FAD2B970E94853D8B
:105470004B015C012F8D38A149A15AA127966CAD33
:105480007DAD8EAD9FAD27970E94853D9B01AC0100
:10549000C501B4010E942D3A2B013C012BA12F5FC5
:1054A0002BA3470156018F8E98A2A9A2BAA2A301ED
:1054B00092016DA97EA98FA998AD0E942E3AEFA501
:1054C000F8A960837183828393832F8D38A149A1CA
:1054D0005AA123966CAD7DAD8EAD9FAD23970E94F2
:1054E0002E3AABA5BCA56D937D938D939C9313979A
:1054F0002F962CAD3DAD4EAD5FAD2F97F80160817D
:105500007181828193810E942E3AD8016D937D939F
:105510008D939C931397BE016F5F7F4F81EC96E054
:105520000E94DA1D80914406811131CDBFEF2B1A04
:105530003B0A6ACF2DEB37E346E055E3C701B601DE
:105540000E94233B18160CF49FCE2BED3FE049EC54
:1055500050E4C701B6010E942E3A94CEB10190E00A
:1055600080E00E94D53B2FA138A549A55AA50E94ED
:10557000853D6B017C010E94283B6F8F78A389A336
:105580009AA3C701B6010E94163E4B015C01ABA96C
:10559000BCA9CD90DD90ED90FC90F7FAF094F7F86F
:1055A000F094ADADBEAD8D919D910D90BC91A02DAF
:1055B0008BA39CA3ADA3BEA3A70196016F8D78A179
:1055C00089A19AA10E94853D2B013C012BA13CA100
:1055D0004DA15EA1C501B4010E94853D9B01AC01B6
:1055E000C301B2010E942E3A2B013C01A701960192
:1055F000C501B4010E94853D6B017C012BA13CA13A
:105600004DA15EA16F8D78A189A19AA10E94853DCF
:105610009B01AC01C701B6010E942D3A6F8F78A3A0
:1056200089A39AA31BA243CF89858460898780912F
:1056300043068230F9F00E94361A809144068111A7
:1056400019C0FFA1F071FF2E109248062FA123FB75
:10565000882780F90E94250486B1807290912906DE
:10566000891719F184E00E94E8020E945C1980E029
:105670000E9425048091F1068093B106882311F4DD
:105680000C948C1F0E94361A8091B10690914306AB
:10569000833009F052C0923029F088E00E94F8026D
:1056A0000E945C191092B106E3C880E380936C00FD
:1056B00010924906B80186E197E00E94DA1D81E068
:1056C0008093420682E00E94F8020E945C19809159
:1056D00044068111CFCF809143068111F6CF80918E
:1056E0004206813031F5FF2001F18CE0EAE2F6E07C
:1056F000A6E3B6E001900D928A95E1F7109242067A
:1057000080E00E9425040E945C190E94C10C0E9446
:10571000F40C0E9482080E94580880914806882351
:1057200009F435CC0E94340BA5CF85E00E94E80235
:10573000E5CF81E080934806E1CF81E08093AA061F
:105740001092AE061092AD061092AB061092B00603
:105750001092B20684E680934B0680934C068093A9
:105760004D06923089F06DEC76E080E00E94A01A40
:10577000882311F40C942F220E94691A40E050E013
:10578000BA0180E00E9495158BEC93E00E94AE0573
:1057900088EF93E00E94AE050E949E0783CF81E0D0
:1057A0000C948C1F82E00C948C1F88E10C948C1F4D
:1057B00086E20C948C1F89E10C948C1F84E00C947D
:1057C0008C1F8BE10C948C1F80E20C948C1F82E266
:1057D0000C948C1F84E20C948C1F80E10C948C1F21
:1057E0008FE00C948C1FCF93DF93C0E08C2F0E942E
:1057F000471A811114C0109222078EE30E94FC0305
:105800000E9418048AE30E94FC0387E00E94AB0711
:10581000C13019F4DF91CF910895C1E0E7CF8091B5
:1058200022078823A9F30E943A1ED82F8EE30E94F4
:10583000FC030E9418048AE30E94FC038D2F0E943F
:105840005008E6CF8F929F92AF92BF92CF92DF9295
:10585000EF92FF920F931F93CF93DF93CDB7DEB7F5
:1058600069970FB6F894DEBF0FBECDBF8E010F5FF4
:105870001F4F8DE0F80111928A95E9F786E089873C
:105880006AE276E0CE010E960E943C0310922A0650
:1058900010922B0610922C0610922D0680919B06DA
:1058A00080FF02C180E090E0A0EAB0E48E879F878D
:1058B000A88BB98B24E0F22EF0924A068091A006C4
:1058C0009091A106A091A206B091A30689839A8324
:1058D000AB83BC83B801CE010E960E941E1BF092D2
:1058E00047060E94100E0E943E0C0E94100E0E945D
:1058F000F00AF82E0E94FC0AF110F7CF80FDF5CFD8
:105900000E94C10C8091A4069091A5060E94710C82
:105910006AE276E0CE010E960E943C0310922A06BF
:1059200010922B0610922C0610922D0620E030E0EB
:1059300040EC5FEB6091790670917A0680917B066E
:1059400090917C060E94853D20919B0620FD9058F9
:105950006E877F87888B998B94E0F92EF0924A06A8
:1059600080919C0690919D06A0919E06B0919F0605
:1059700089839A83AB83BC83B801CE010E960E94C3
:105980001E1BF09247060E94100E0E943E0C9924A6
:105990009394AA24A394F12CE12CD12CC12C0E9425
:1059A000F00A882E0E94FC0A8170B82E882039F0F7
:1059B000AA2029F0C0902A06D0902B06A12CBB204B
:1059C00039F0992029F0E0902A06F0902B06912CCE
:1059D0000E94100E882019F3BB2009F30E94C10C0D
:1059E0008091A4069091A5060E94710C6AE276E06F
:1059F000CE010E960E943C0310922A0610922B06AE
:105A000010922C0610922D0680919B0680FF51C0AB
:105A100080E090E0A0EAB0E48E879F87A88BB98BE6
:105A200084E0B82EB0924A068091A0069091A1061B
:105A3000A091A206B091A30689839A83AB83BC830D
:105A4000B801CE010E960E941E1BB09247060E941E
:105A5000100E0E943E0C0E94100E8091250684714B
:105A6000D1F384E00E94EE020E94C10C8091A40652
:105A70009091A5060E94710C10924706C6018E19DE
:105A80009F0969960FB6F894DEBF0FBECDBFDF91B8
:105A9000CF911F910F91FF90EF90DF90CF90BF902B
:105AA000AF909F908F90089580E090E0A0EAB0ECD6
:105AB000FDCE80E090E0A0EAB0ECAECF2F923F9216
:105AC0004F925F926F927F928F929F92AF92BF920E
:105AD000CF92DF92EF92FF920F931F93CF93DF93BA
