:100000000C940E020C9420020C9420020C94DB3110
:100010000C94BD2E0C9420020C9420020C9420020F
:100020000C9420020C9420020C9420020C94E52ED7
:100030000C9420020C9420020C9420020C942002B8
:100040000C94CF2E0C9420020C9416310C94B131E8
:100050000C9420020C9420020C9420020C94200298
:100060000C9420020C942002084AD73B3BCE016E30
:1000700084BCBFFDC12F3D6C74319ABD56833DDAFF
:100080003D00C77F11BED9E4BB4C3E916BAAAABE0E
:10009000000000803F05A84CCDB2D44EB93836A937
:1000A000020C50B9918688083CA6AAAA2ABE000074
:1000B00000803F000D0A4772626C20312E316820AB
:1000C0005B68656C703A2724275D0D0A00244E009A
:1000D00020594D443A3230323130363039002050D8
:1000E00043423A005B6772626C3A312E31682047B6
:1000F000473A00206D6D5D0D0A005B544C4F3A008D
:100100005B4739323A003330003238005B47002019
:100110004700204D00205300204600205400333873
:100120002E005B47433A47005B245F3D5F207365C9
:1001300074005B24242073657474696E6773005BBC
:100140002423206F666673657473005B2443206309
:100150006865636B005B244C206C6576656C5800A9
:100160005B24492076657273696F6E005B244720BB
:100170007374617465005B245820756E6C6F636BDB
:10018000005B244820686F6D65005B203F2073741E
:100190006174757300414C41524D3A00686F6D6552
:1001A0000070726F626500726573657400536F66EC
:1001B00074204C696D004C696D697420007C573A5D
:1001C000007C4C3A007C423A007C573A007C4D3A25
:1001D00000536C65657000436865636B00416C613A
:1001E000726D00486F6D65004A6F6700486F6C6400
:1001F0003A0052756E0049646C65000D0A003A6D54
:100200006D003A6D6D2F735E32003A6D6D2F6D6922
:100210006E003A7374702F6D6D0072706D4D696E63
:100220000072706D4D617800686F6D6550756C6C13
:100230006F666600686F6D6544656C617900686F14
:100240006D655365656B00686F6D6546696E650029
:10025000686F6D654469724D61736B00686F6D65A1
:10026000456E00686172644C696D00736F66744C12
:10027000696D00496E636800617263546F6C006A57
:100280006E6344657600737461744D61736B0070C6
:1002900072624C564C006C696D4C564C0073746520
:1002A00070456E006469724D61736B0073746570A4
:1002B0004D61736B0069646C6544656C61790073B2
:1002C00074657050756C736500472D636F646520AD
:1002D000006D697373696E6720005B5052423A008B
:1002E000636F6E666C69637400776F726400617827
:1002F0006973006572726F723A0000520074617225
:1003000067004C6574004C6E006E756D0047307C64
:100310004731004735390047343300463F006261BA
:1003200064006A6F67494E56006A6F674C494D001A
:10033000326C6F6E670024482064697361626C657B
:1003400064006E6F742069646C65004D454D696E84
:100350006974002D230024554E4B000000C8430053
:1003600000C8430000C84300C01E4500C04145000E
:10037000C0414500BADB4900BADB4900BADB49009D
:1003800000ADC2008071C300009DC20A0000647FFE
:100390000AD7A33C6F12033B0000FA45000000009F
:1003A00078010000F0410000FA4401000000003F25
:1003B0006F6B0D0A005B6563686F3A20005B4D53FD
:1003C000473A00536C65657000526573746F7265CF
:1003D0003A7370696E646C6500526573746F726510
:1003E0003A64656661756C74730050676D20456E84
:1003F000640024433A4F46460024433A4F4E00558A
:100400006E6C6F636B65640024482F24580052653E
:1004100073657420746F20636F6E740011241FBEA7
:10042000CFEFD8E0DEBFCDBF27E0A0E0B1E001C054
:100430001D92A237B207E1F70E940A320C943C3EAB
:100440000C9400008F929F92AF92BF92CF92DF9256
:10045000EF92FF920F931F93CF93DF937C016B0179
:10046000DC01EC91F0E0EE5DF84F8081EF018D3220
:1004700029F52296818101E0912CF0E010E020E046
:1004800030E0A9015E01E0EDE80FEA3018F5FF5F0A
:10049000F930E0F491101150A5E0B0E00E94153E53
:1004A0009B01AC01220F331F441F551F2E0F311D1E
:1004B000411D511D2196D5018C91E4CF8B3219F04D
:1004C000219600E0D9CF22968181FBCF911006C002
:1004D0001F5FF0CFEE3F29F4911003C0992493944D
:1004E000E9CFFF23F9F0CA01B9010E94143B4B0187
:1004F0005C0120E030E0A9010E94623A81112BC02A
:10050000002309F445C0B7FAB094B7F8B094F601E7
:1005100080829182A282B382C252D740C150F70139
:10052000C083F1E08F2FDF91CF911F910F91FF904A
:10053000EF90DF90CF90BF90AF909F908F900895F5
:100540002AE037ED43E25CE3C501B4010E94C43CFC
:100550004B015C011E5F1F3F9CF31F3F59F42DECC4
:100560003CEC4CEC5DE3C501B4010E94C43C4B0182
:100570005C01C6CF112321F220E030E040E251E4DB
:10058000C501B4010E94C43C4B015C011150F2CF83
:10059000D6018D929D92AD92BC921397BDCF2FB78D
:1005A000F89490912806892B809328062FBF0895F0
:1005B0002FB7F89490912706892B809327062FBF99
:1005C00008959FB7F894809326069FBF08959FB71C
:1005D000F8942091250680958223809325069FBF5D
:1005E00008952FB7F89490912506892B80932506BE
:1005F0002FBF0895AF92BF92CF92DF92EF92FF92FA
:100600000F931F93CF93DF93EC0107E616E05C0195
:100610008CE0A80EB11CC990D990E990F99020E027
:1006200030E0A901C701B6010E94843C1816DCF035
:10063000F80121913191419151918F01C701B6018A
:100640000E94623A87FD0FC0CA15DB0521F780E0E2
:10065000DF91CF911F910F91FF90EF90DF90CF909E
:10066000BF90AF90089581E0F3CF8F929F92AF92A9
:10067000BF92CF92DF92EF92FF920F931F93CF938F
:10068000DF93EB0123E4E22E26E0F22E8C016B01D6
:100690008CE0C80ED11C6991799189919991F701EB
:1006A00081909190A190B1907F010E94163BA5018D
:1006B00094010E946C3AF801619371938193919334
:1006C0008F01CC15DD0539F7DF91CF911F910F9187
:1006D000FF90EF90DF90CF90BF90AF909F908F9062
:1006E0000895CF93DF93C0912306D09124062097DD
:1006F000C9F08091F40581608093F40560910A0649
:1007000070910B0680910C0690910D069B01AC0137
:100710000E94C43C6E8B7F8B888F998F1092240629
:1007200010922306DF91CF91089590917406492F7E
:1007300080917506282F90FF11C094E080FF10C0B3
:1007400080E241FD986021FD806442FD906122FDC0
:1007500080689093170280931802089590E0EECF7E
:1007600080E0EFCF3B988093B300811106C0809169
:10077000B0008F778093B00008958091B0008068BA
:10078000F9CFE0EBF0E080818F7780833B9A08958A
:10079000239A83E08093B00082E08093B10020919F
:1007A00084063091850640918606509187066091B7
:1007B00080067091810680918206909183060E9446
:1007C0006C399B01AC0160E070E08EE793E40E941D
:1007D0006C3A609313027093140280931502909305
:1007E0001602259A43980C94C103E0911D0191E0F3
:1007F0009E0F913709F490E020918F01291761F045
:10080000F0E0E25EFE4F808390931D018091C10075
:1008100080628093C10004C02091250624FFECCFA4
:100820000895CF93DF93C2E2D7E08991811103C08D
:10083000DF91CF9108950E94F503F7CF109229061A
:100840009091880697FD03C090E290932906882333
:1008500031F08091290690E2892780932906089536
:100860008F929F92AF92BF92CF92DF92EF92FF92C0
:100870000F931F93CF93DF93CDB7DEB72D970FB6AE
:10088000F894DEBF0FBECDBF6B017C01042F20E0CA
:1008900030E0A9010E94623A87FF07C08DE20E9402
:1008A000F503F7FAF094F7F8F094102F123008F0EF
:1008B00054C000FF0AC020E030E040E251E4C7012C
:1008C000B6010E94C43C6B017C0120E030E040E0B6
:1008D0005FE3C701B6010E946D390E94DE3A10E065
:1008E0003AE0832E912CA12CB12CE12FF0E0611580
:1008F000710581059105E9F581E090E08C0F9D1F60
:10090000E80FF91F80E3101708F445C0101309C061
:10091000E1E0F0E0EC0FFD1FE10FF11D80E38083CB
:100920001F5FEE24E394F12CEC0EFD1EE10EF11C92
:10093000111134C02D960FB6F894DEBF0FBECDBF97
:10094000DF91CF911F910F91FF90EF90DF90CF90AB
:10095000BF90AF909F908F90089520E030E048ECDA
:1009600052E4C701B6010E94C43C6B017C011250E5
:100970009DCFEE24E394F12CEC0EFD1EEE0EFF1E37
:10098000A50194010E94ED3D605DF7016083B9010E
:10099000CA011F5FAACF1F5F8193B5CF101303C099
:1009A0008EE20E94F503F70182917F010E94F50318
:1009B0001150BECF2091880643E020FF07C02BE8EE
:1009C00032E441E25DE30E94C43C44E00C94300414
:1009D0000F931F93CF938C01C0E0F8016191719147
:1009E000819191918F010E94DA04C23019F08CE25A
:1009F0000E94F503CF5FC33081F7CF911F910F9114
:100A000008958F929F92AF92BF92CF92DF92EF9212
:100A1000FF920F931F93CF93DF93CDB7DEB72A9743
:100A20000FB6F894DEBF0FBECDBF6115710581050D
:100A30009105A9F480E32A960FB6F894DEBF0FBEA5
:100A4000CDBFDF91CF911F910F91FF90EF90DF907D
:100A5000CF90BF90AF909F908F900C94F50300E0E3
:100A60009E012F5F3F4F79012AE0822E912CA12C0D
:100A7000B12C6701C00ED11CA50194010E94ED3D6F
:100A8000F6016083B901CA010F5F61157105810527
:100A9000910579F70E0D1F2D111DE016F10699F441
:100AA0002A960FB6F894DEBF0FBECDBFDF91CF916F
:100AB0001F910F91FF90EF90DF90CF90BF90AF907C
:100AC0009F908F900895F80182918F01805D0E9420
:100AD000F503E3CFCF92DF92EF92FF9297FF0CC026
:100AE0006B017C018DE20E94F50366277727CB011D
:100AF0006C197D098E099F09FF90EF90DF90CF90D0
:100B00000C940105CF93DF93843658F06AE00E947D
:100B1000CD3DC0E3C90F6AE00E94CD3DD0E3D90FBF
:100B200004C0C0E0D0E08A30B0F7805D0E94F503D9
:100B3000DD2319F08D2F0E94F503CC2329F08C2F93
:100B4000DF91CF910C94F503DF91CF910895CF936E
:100B5000DF93EC01FE0184912196811103C0DF91A6
:100B6000CF9108950E94F503F5CF89EC92E00C94A3
:100B7000A7050E94B50581ED92E00C94A7058BEFC7
:100B800091E00C94A7050E9411040C94BF05CF932B
:100B9000C82F80E20E94F50388E20E94F503C0326C
:100BA00008F067C0EC2FF0E0E852FA4F0C940F3ECB
:100BB000F805FD0500060306060609060C063906BB
:100BC000390639060F0612061506180639063906C3
:100BD00039063906390639061B061E062106240683
:100BE00027062A062D06300639063906330636064C
:100BF0008FEB92E00E94A7054BC085EB92E0FACF05
:100C00008CEA92E0F7CF84EA92E0F4CF8DE992E0AB
:100C1000F1CF86E992E0EECF8FE892E0EBCF86E865
:100C200092E0E8CF8FE792E0E5CF88E792E0E2CF6D
:100C300083E792E0DFCF8BE692E0DCCF83E692E0C1
:100C4000D9CF8CE592E0D6CF80E592E0D3CF87E490
:100C500092E0D0CF8EE392E0CDCF84E392E0CACF92
:100C600088E292E0C7CF81E292E0C4CF8AE192E0CD
:100C7000C1CF8CE98C0FC0E08A3080F488580E9484
:100C8000F503C13089F068F0C23089F0C33091F0CB
:100C900089E20E94F503CF910C94BF058A50CF5F83
:100CA000EBCF82E192E0A6CF8AE092E0A3CF82E090
:100CB00092E0A0CF8EEF91E09DCFCF92DF92EF92A6
:100CC000FF92CF93DF93C82F6A017B01D22F84E27A
:100CD0000E94F5038C2F0E9482058DE30E94F5038C
:100CE0004D2FC701B6010E9430048C2FDF91CF91A8
:100CF000FF90EF90DF90CF900C94C705CF93DF93D8
:100D0000C82FD62F84E20E94F5038C2F0E94820503
:100D10008DE30E94F5038D2F0E9482058C2FDF91B9
:100D2000CF910C94C705EF92FF920F931F93CF932F
:100D3000DF936091730670E080E00E947E06609110
:100D4000760670E081E00E947E066091740670E095
:100D500082E00E947E066091750670E083E00E944A
:100D60007E066091880662FB662760F970E084E089
:100D70000E947E066091880666FB662760F970E037
:100D800085E00E947E0680918806082E000C990B53
:100D9000692F661F6627661F70E086E00E947E0648
:100DA0006091770670E08AE00E947E0640917806A6
:100DB0005091790660917A0670917B0623E08BE072
:100DC0000E945D0640917C0650917D0660917E06F2
:100DD00070917F0623E08CE00E945D06609188069A
:100DE000617070E08DE00E947E066091880665FB70
:100DF000662760F970E084E10E947E0660918806B3
:100E000063FB662760F970E085E10E947E066091D1
:100E100088066295617070E086E10E947E066091AE
:100E2000890670E087E10E947E0640918A06509113
:100E30008B0660918C0670918D0623E088E10E94FC
:100E40005D0640918E0650918F06609190067091DC
:100E5000910623E089E10E945D06609192067091FF
:100E600093068AE10E947E06409194065091950671
:100E7000609196067091970623E08BE10E945D06D3
:100E800040918006509181066091820670918306A0
:100E900020E08EE10E945D06409184065091850617
:100EA000609186067091870620E08FE10E945D06C2
:100EB00084E6F82E10E0C3E4D6E000E0E02EEF0C6C
:100EC000123011F1133069F11130C9F048815981A4
:100ED0006A817B8123E08E2D0E945D060F5F249640
:100EE000033061F78AE0F80E1F5F8CE8F812E3CF59
:100EF000DF91CF911F910F91FF90EF9008954C8556
:100F00005D856E857F85E6CF20E030E041E655E4E3
:100F1000688D798D8A8D9B8D0E946C3AAB01BC01E6
:100F2000D9CF4CA15DA16EA17FA17058D3CF8DE523
:100F30000E94F5030C94BF0585EB93E00E94A70582
:100F40000E9411040C949707CF93C82F8DEB93E068
:100F50000E94A705EFEFEC0FE53208F02EC0F0E09D
:100F6000EC54F84F0C940F3E37082A08D907ED07C8
:100F7000F607DD07F007F307F607F607F907DD07C1
:100F8000DD07F907FC07FF07DD07DD07DD070C08B4
:100F9000200811082A08200820082F0832084608CF
:100FA0001B082508020846083C08410846080708AF
:100FB000160886E593E00E94A7050E9497078AEF2E
:100FC00092E00E94A70583EF92E00E94A7058C2F74
:100FD0000E948205CF910C94BF0583E593E0EBCF8F
:100FE0008BE493E0E8CF82E493E0E5CF86E393E0FF
:100FF000E2CF80E393E0DFCF89E293E0DCCF82E2CF
:1010000093E0D9CF0E94B5058EEE92E0D4CF0E9436
:10101000B50589EE92E0CFCF0E94B5058EE193E051
:10102000CACF0E94B5058BE193E0C5CF0E94B505FC
:1010300087E193E0C0CF0E94B50583E193E0BBCF89
:101040000E94B50580EE92E0B6CF0E94B9058DE012
:1010500093E0B1CF0E94B90589E093E0ACCF0E9444
:10106000B905D2CF0E94B90586E093E0A4CF0E94D3
:10107000B90582E093E09FCF0E94B9058DEF92E021
:101080009ACF0E94B9058BEF92E095CF0E94B905E7
:10109000C0CF811104C080EB93E00C94A7050C94A1
:1010A000A407CF93DF93CDB7DEB72C970FB6F89494
:1010B000DEBF0FBECDBF8AED92E00E94A70566E3BA
:1010C00076E0CE0101960E943503CE0101960E9482
:1010D000E8048AE30E94F50380919D060E94820540
:1010E0000E9497072C960FB6F894DEBF0FBECDBFB7
:1010F000DF91CF910895E1E0F1E0AAE2B6E04D91F1
:101100005D916D917C9113974083518362837383CA
:1011100014964D915D916D917C9117974483558301
:101120006683778318968D919D910D90BC91A02D2B
:1011300080879187A287B3870895BF92CF92DF926D
:10114000EF92FF920F931F93CF93DF937C01FC01EB
:1011500006A517A5D0A9C1A9818980FF33C06091D8
:10116000A10670E090E080E00E94163B2AE037ED97
:1011700043E25CE30E94C43C9B01AC01B8018D2FAB
:101180009C2F0E94C43C8B01D82FC92F20E030E057
:1011900040E85FE3B8018D2F9C2F0E94843C181615
:1011A00024F000E010E0D0E8CFE3B8018D2F9C2FB1
:1011B000DF91CF911F910F91FF90EF90DF90CF9033
:1011C000BF90089582FD17C06091A00670E090E086
:1011D00080E00E94163B2AE037ED43E25CE30E9488
:1011E000C43C9B01AC01B8018D2F9C2F0E94C43CD4
:1011F0008B01D82FC92FF701B2A4C3A4D4A4F5A49E
:1012000098014D2F5C2F6B2D7C2D8D2D9F2D0E94D5
:10121000623A87FFBBCF0B2D1C2DDD2DCF2DB6CF16
:1012200080913E0290916905981739F026E3829FDC
:10123000C0011124815C9D4F089590E080E00895E5
:101240000E941009892B19F082E00C94F102089594
:101250002F923F924F925F926F927F928F929F92C6
:10126000AF92BF92CF92DF92EF92FF920F931F93B4
:10127000CF93DF9300D000D0CDB7DEB700916905E2
:10128000002309F486C009833981315039831091D4
:101290003D02131709F466C0C32ED12CE6E33E9F2E
:1012A000C00111249C01215C3D4F7901F901728C30
:1012B000838C948CA58C668D778D80A191A19B01E8
:1012C000AC010E946D39F70122A133A144A155A1BF
:1012D0000E94C43CB62EE72EF82E9B83262F372F74
:1012E000482F592F672D782D892D9A2D0E94623A0B
:1012F00087FF03C0B72C7401AB8286E38C9DF0019D
:101300008D9DF00D1124E15CFD4F8B2D9E2DAF2D99
:10131000BB81868B978BA08FB18FF9818F2FF111B5
:1013200001C08FE0FF24FA94F80E30903E021F11A6
:1013300033C0131102C00E947103E6E31E9FC00177
:101340001124815C9D4F9A83898333243394310E19
:10135000FFE03F1201C0312C86E3282E031185C027
:1013600010933D020F900F900F900F90DF91CF914F
:101370001F910F91FF90EF90DF90CF90BF90AF90B3
:101380009F908F907F906F905F904F903F902F90A5
:1013900008952FE0298378CF298186E3289F900143
:1013A0001124215C3D4F3C832B8326E3E22E8F2CBE
:1013B000912CFE9CC0011124FC01E15CFD4FFA83DD
:1013C000E983F11002C09FE0F92EFA94F31002C0F5
:1013D0000E947103E89CC001E99C900D11249C01BE
:1013E000215C3D4F6901F901428C538C648C758CF2
:1013F000A301920166897789808D918D0E94623A5E
:10140000882339F1F601668D778D80A191A19B012A
:10141000AC010E946D39F60122A133A144A155A16E
:101420000E94C43CEB81FC8126893789408D518D17
:101430000E946D394B015C01AC019B01C301B201FB
:101440000E94843CF60118165CF4868A978AA08E66
:10145000B18E29813A813C832B831F11A8CF6DCF98
:10146000468A578A608E718EF4CFC32CD12C329C61
:10147000C00111249C01215C3D4F7901E981FA8171
:1014800046885788608C718CF90186889788A08C73
:10149000B18CA5019401C301B2010E94623A87FF99
:1014A00026C0E981FA81668D778D80A191A19B018B
:1014B000AC010E946D39E981FA8122A133A144A1D6
:1014C00055A10E94C43CA30192010E946D392B01D9
:1014D0003C01AC019B01C501B4010E94843C18167B
:1014E00034F4F701468A578A608E718E132D2C9C36
:1014F000F0012D9CF00D1124E15CFD4F228D338D08
:10150000448D558D66897789808D918D0E94623AD0
:10151000811101C0132D3394FFE03F1201C0312C23
:10152000FA82E9821BCF6F927F928F929F92AF9245
:10153000BF92CF92DF92EF92FF920F931F93CF93C0
:10154000DF93EB018C015B018CE0A80EB11C89E9F3
:10155000682E96E7792E26E9822E3EE7932EC990D3
:10156000D990E990F99020E030E0A901C701B601D7
:101570000E94623A8823B9F0A7019601F8016081C0
:101580007181828193810E946C3A6B017C01E894A5
:10159000F7F89301A401C701B6010E94843C181614
:1015A00014F0360147010C5F1F4FCA15DB05B9F671
:1015B000B301C401DF91CF911F910F91FF90EF9084
:1015C000DF90CF90BF90AF909F908F907F906F9063
:1015D000089596B18091880686FF05C0947081E0D9
:1015E00009F480E008959095F9CF93B18091880631
:1015F00086FF0BC0967159F091FB882780F992FD08
:101600008260907129F0846008959095F3CF80E016
:101610000895EBE6F0E08081897E8083E8E6F0E0E3
:1016200080818E7F8083089584B1897E84B987B15B
:10163000897E87B92A9A429A8091880683FF0BC0D7
:1016400080916B00866180936B008091680081605F
:101650008093680008950C94090B6AE276E081ECAF
:1016600096E00C943503F894F999FECF92BD81BDB4
:1016700081E08FBB20B5862F8227082E000C990BA6
:1016800050E086239523892B49F084E16F3F11F0C8
:1016900060BD84E08FBBF99A789408952617E1F332
:1016A00060BD84E2F7CF9F92AF92BF92CF92DF925C
:1016B000EF92FF920F931F93CF93DF935C018A0108
:1016C0007B01E40EF51EEB01912C6C01C61AD70AC2
:1016D000CE018C0D9D1D21E0911007C0292D990C84
:1016E000330B232F221F2227221F6991962E920E41
:1016F0000E94330BCE15DF0559F7692DC501800F08
:10170000911FDF91CF911F910F91FF90EF90DF908C
:10171000CF90BF90AF909F900C94330B6AE090E015
:1017200080E00E94330B45E550E063E476E081E021
:1017300090E00C94530BF999FECF92BD81BD81E0EE
:101740008FBB80B5089590E088569D4F0C949B0BFD
:101750009F92AF92BF92CF92DF92EF92FF920F9340
:101760001F93CF93DF935B018A017C01E40EF51E8A
:10177000EC01912C6B01C81AD90AC6018C0F9D1F70
:101780000E949B0B21E0911007C0292D990C330B6F
:10179000232F221F2227221F982E920E8993CE15C7
:1017A000DF0559F7C501800F911F0E949B0B21E0B7
:1017B00030E0891511F030E020E0C901DF91CF91D0
:1017C0001F910F91FF90EF90DF90CF90BF90AF905F
:1017D0009F90089540E550E060E573E082E297E075
:1017E0000E94A80B81E0089584E190E0A0E0B0E0C1
:1017F0008A309105A105B10560F425E02A95F1F73D
:1018000000000197A109B1090097A105B10581F771
:10181000089525E32A95F1F700000A97A109B10977
:10182000F3CF8091880682FF04C0289907C0289AC8
:101830000895289B03C028980C94F40B08950E94E7
:10184000110C419902C0399B04C0419839980C94FD
:10185000F40B0895419B16C0399B14C00E94110CD3
:101860008091170280932802809173068250990B11
:10187000880F81958093270280916F00826080930A
:101880006F0008950E941F0CEBCF883451F08C3408
:1018900069F0803389F48091880682FF05C028981A
:1018A0000895419A399AF7CF289A08950E94110C09
:1018B0004198399A0C94F40B0895019708F408950F
:1018C000EFE9FFE03197F1F700C00000F6CF80911B
:1018D0006F008D7F80936F0080918100887F816091
:1018E000809381001092190280917606909198065B
:1018F0008F3F61F420912606211108C0903841F4F1
:1019000090E00E945D0C8CE40C94450C9430C1F77F
:101910000C941F0C8091250684FD1EC080E10E945E
:10192000F1020E94C10390919806892F8C7221F4D4
:1019300080919C06867081F0943061F48091260637
:10194000811103C086E00E94E1020E94670C80E3DF
:101950000C94450C83E0F7CF0895CF93DF930E945A
:10196000670CE3EFF5E080E3DF011D928A95E9F76C
:10197000CAE1D2E083E2FE0111928A95E9F7109262
:1019800024061092230610926A051092960581E0B3
:1019900080936B05109219020E94950380911802A2
:1019A0008F878BB1837E90911702892B8BB98BB176
:1019B0008F7190911802892B8BB9DF91CF91089587
:1019C000E1E0F1E08CE1DF011D928A95E9F71092E8
:1019D0003E021092690581E08093000110923D0261
:1019E00008954F925F926F927F92AF92BF92CF9283
:1019F000DF92EF92FF920F931F93CF93DF93EC014F
:101A00005C012CE0A20EB11C8C01C12CD12C760102
:101A1000F80141905190619071908F0120E030E089
:101A2000A901C301B2010E94623A882371F0A301A7
:101A30009201C301B2010E94C43C9B01AC01C701E9
:101A4000B6010E946D396B017C010A151B0501F777
:101A5000C701B6010E94633D6B017C01AC019B0193
:101A600060E070E080E89FE30E946C3A2B013C014B
:101A700069917991899199915E01F4E0AF1AB10869
:101A8000A30192010E94C43CF501608371838283AB
:101A90009383C017D10761F7C701B601DF91CF91DA
:101AA0001F910F91FF90EF90DF90CF90BF90AF907C
:101AB0007F906F905F904F9008954F925F926F92DA
:101AC0007F928F929F92AF92BF92CF92DF92EF92CE
:101AD000FF926B017C018090840690908506A09017
:101AE0008606B090870640908006509081066090F0
:101AF000820670908306A3019201C501B4010E9481
:101B0000843C87FF1BC06091A20670E090E080E0FB
:101B10000E94163B2AE037ED43E25CE30E94C43C9E
:101B2000A70196010E94C43C6B017C01AC019B01A2
:101B3000C301B2010E94623A1816B4F04092A606A0
:101B40005092A7066092A8067092A9068FEFFF90A8
:101B5000EF90DF90CF90BF90AF909F908F907F904D
:101B60006F905F904F900895A7019601C501B40151
:101B70000E94843C87FD1CC020E030E0A901C70121
:101B8000B6010E94623A811109C01092A606109215
:101B9000A7061092A8061092A906D9CF8092A60691
:101BA0009092A706A092A806B092A90681E0CFCF96
:101BB000C092A606D092A706E092A806F092A906C7
:101BC000A5019401C701B6010E946C39209113024E
:101BD0003091140240911502509116020E94C43CAB
:101BE0000E94513B20E030E040E85FE30E946D3905
:101BF0000E94E53A862FABCF2F923F924F925F9291
:101C00006F927F928F929F92AF92BF92CF92DF920C
:101C1000EF92FF920F931F93CF93DF93CDB7DEB771
:101C2000EB970FB6F894DEBF0FBECDBF80919C0638
:101C300080FD53C290916A0580916B05981709F455
:101C40004CC28091230690912406892B09F07EC016
:101C500010919C0612FF5AC28091690526E3829F6B
:101C6000C0011124815C9D4F90932406809323062C
:101C700040912306509124065A874987452B09F441
:101C80002CC20091F40500FF44C21092F40510929A
:101C90000606109207061092080610920906A985FA
:101CA000BA855E962D913D914D915C9191972983D6
:101CB0003A834B835C8360E070E080E09FE30E94A6
:101CC0006C3A6D837E838F839887E985FA8542A07D
:101CD00053A064A075A086889788A08CB18C11FF52
:101CE000E6C2F2E0F0930506A50194010E94C43C0F
:101CF0009B01AC01C301B2010E946C396B017C01F4
:101D000020E030E0A9010E94623A87FFBFC229812A
:101D10003A814B815C81CA01B9010E946D39A301EE
:101D200092010E94C43C9B01AC01C501B4010E9418
:101D30006C390E94633D6093120670931306809382
:101D4000140690931506186010939C0680919605D2
:101D5000A82FB0E0BA8BA98B27E02A9FF0012B9F18
:101D6000F00D1124E459FA4F8091F30584834091DA
:101D70002306509124065A874987DA019296BC912E
:101D8000BDA3FA01F3A1FEA3DA019496BC91BFA30F
:101D9000FA01F5A1F8A720910106309102064091C1
:101DA0000306509104066DA17EA18B2F9F2F0E94E8
:101DB0006C3969AB7AAB8BAB9CAB20E030E0A9010E
:101DC0000E94623A87FF04C019AA1AAA1BAA1CAA79
:101DD00020910E062D8B30910F063E8B4091100600
:101DE0004F8B50911106588F809116068D8F9091D0
:101DF00017069E8FA0911806AF8FB0911906B8A351
:101E0000E0911A06E9A7F0911B06FAA720911C069B
:101E10002BA730911D063CA770900A0660900B0618
:101E200040910C064BAF50910D065AAF80910506BC
:101E30008D87909106069DA7A0910706AEA7B09149
:101E40000806BFA7E0910906E8ABF0911206FEABC9
:101E5000209113062FAB3091140638AF4091150630
:101E600049AF29A53AA54BA55CA56D8D7E8D8F8DBB
:101E700098A10E94623A8111A9C352E05DAB9DA175
:101E8000998FAEA1AA8FBFA1BB8FE8A5EC8F8EE37F
:101E9000C82E83ECD82E8EE2E82E89E3F82E212C72
:101EA000312C2101A701960129A33AA34BA35CA3DE
:101EB0005D85513009F42BC4A985BA85513008F4E9
:101EC000B7C3533009F059C45E962D913D914D91A1
:101ED0005C919197C701B6010E94C43C4B015C0123
:101EE0002D893E894F89588D672D762D8BAD9AAD02
:101EF0000E946C399B01AC01C501B4010E94843C75
:101F000087FD6EC32D8D3E8D4F8D58A16DA17EA195
:101F10008FA198A50E946C399B01AC010E946D397C
:101F20006B017C012D893E894F89588D672D762D57
:101F30008BAD9AAD0E946D399B01AC01C701B60112
:101F40000E946C3A6B017C017D886E88BF89BBAFB3
:101F5000E88DEAAF0D8D1E8DFF8DF98328A12D83AD
:101F600031E03D87A7019601C201B1010E946D39A0
:101F70001B012C0129A13AA14BA15CA10E94623A4C
:101F800087FF68C4A201910169A17AA18BA19CA1DC
:101F90000E946C396B017C01980149815D816DA5BE
:101FA0007EA58FA598A90E94623A87FD12C33D8540
:101FB00030930506872D962DABADBAAD80930A06FA
:101FC00090930B06A0930C06B0930D06E091970535
:101FD000F09198058189811104C090919C0693FF2E
:101FE00031C0A985BA8551969C915197907309F497
:101FF00051C4D296CD90DD90ED90FC90D59788237A
:10200000B1F020911E0630911F064091200650919C
:102010002106672D762D8BAD9AAD0E94C43C9B01A5
:10202000AC01C701B6010E94C43C6B017C01C70131
:10203000B6010E945D0D8093220680919C06877FE9
:1020400080939C0627E0E989FA892E9FC0012F9F83
:10205000900D1124AC0144595A4F3A018091220647
:10206000DA0116968C932091FD053091FE05409182
:10207000FF0550910006B80189819D810E94C43CF2
:1020800069877A878B879C870E944B3A6B017C011A
:102090006091F9057091FA058091FB059091FC051E
:1020A0000E944B3A4B015C01A70196010E946C39DA
:1020B0000E94E53A6D877E878F87988B2D853E85B8
:1020C000F30131832083232B09F0EFC380919C0619
:1020D00081FFEBC3816080939C06EB960FB6F8946A
:1020E000DEBF0FBECDBFDF91CF911F910F91FF904B
:1020F000EF90DF90CF90BF90AF909F908F907F90A8
:102100006F905F904F903F902F9008950E9410091C
:10211000ABCD8091F3058F5F853009F480E080932B
:10212000F305282F30E052E1859FC0011124DC0126
:10213000A756BA4F7D01B0939805A0939705E985FE
:10214000FA85808950968C9390E080E0419151917E
:1021500061917191D701A80FB91F689412F8440FCB
:10216000551F661F771F1694D1F74D935D936D939E
:102170007C93139704968C30910541F7A985BA8515
:102180001C966D917D918D919C911F97B2E1B29FAC
:10219000A001B39F500D1124FA01E756FA4F4B01ED
:1021A0005C0123E0880C991CAA1CBB1C2A95D1F762
:1021B00084869586A686B7860E94143B6093F905AF
:1021C0007093FA058093FB059093FC05E985FA85E9
:1021D00022A133A144A155A10E946C3A9B01AC01FC
:1021E0002093FD053093FE054093FF0550930006B4
:1021F00060E070E080EA9FE30E946C3A6093010621
:102200007093020680930306909304061092F505DE
:102210001092F6051092F7051092F80511FD02C014
:1022200003FF23C06091120670911306809114067B
:102230009091150660930A0670930B0680930C0626
:1022400090930D069B01AC010E94C43CA985BA8500
:1022500056966D937D938D939C935997077F00932A
:10226000F405D70151961C9212CDE985FA8566894D
:102270007789808D918D0E94633D60930A067093EB
:102280000B0680930C0690930D06EBCFC0920606CA
:10229000D0920706E0920806F09209061092120604
:1022A0001092130610921406109215064CCD10923F
:1022B0000506409216065092170660921806709214
:1022C000190612FF6AC0109212061092130610929D
:1022D000140610921506C12CD12C760189859A8599
:1022E0000E949D08698B7A8B8B8B9C8B9B01AC0128
:1022F0000E94C43C69877A878B879C87A5019401DB
:102300000E94623A87FF93C029853A854B855C8598
:10231000C501B4010E946C392D813E814F815885E1
:102320000E94C43C9B01AC01C301B2010E946C3904
:1023300060931606709317068093180690931906FB
:1023400020E030E0A9010E94623A18160CF449C05E
:1023500032E03093050629813A814B815C81CA01C4
:10236000B9010E946D39A30192010E94C43C9B01F6
:10237000AC01C501B4010E946C390E94633D6093B9
:10238000120670931306809314069093150680919D
:10239000F40588608093F405D6CCE0913E02EF5FAF
:1023A000EF3009F4E0E080916905C12CD12C760171
:1023B0008E1751F026E32E9FF0011124E15CFD4FB2
:1023C000C688D788E08CF18CC701B6010E94633DB6
:1023D000609312067093130680931406909315066B
:1023E0007DCFA701960169857A858B859C850E94A2
:1023F0006C392D813E814F8158850E94C43C609389
:102400001A0670931B0680931C0690931D068989FB
:102410009A89AB89BC8980930E0690930F06A0938E
:102420001006B093110693E0909305068CCCA7019B
:102430009601C501B4010E946C392D813E814F8106
:1024400058850E94C43CA30192010E946D3920E08E
:1024500030E040E05FE30E94C43C6D877E878F8759
:10246000988B20E030E0A9010E94843C18160CF003
:1024700094C0A30192016D857E858F8598890E9405
:10248000623A87FF88C0A701960169857A858B85A6
:102490009C850E946C392D813E814F8158850E9418
:1024A000C43C9B01AC0120931A0630931B06409359
:1024B0001C0650931D066D857E858F8598890E9428
:1024C000843C1816BCF529893A894B895C8920938C
:1024D0000E0630930F064093100650931106A50187
:1024E000940169857A858B859C850E94623A811169
:1024F00004C031E03093050626CCA501940169851E
:102500007A858B859C850E946C392D813E814F8117
:1025100058850E94C43C9B01AC01C301B2010E94DA
:102520006C39609316067093170680931806909383
:10253000190609CC8D859E85AF85B88980931606CE
:1025400090931706A0931806B093190680931A0665
:1025500090931B06A0931C06B0931D0629813A8117
:102560004B815C81CA01B9010E946D392D853E8580
:102570004F8558890E94C43CA70196010E946D397D
:102580000E94633D60930E0670930F0680931006C1
:1025900090931106D8CB92E047CF8091120690918C
:1025A0001306A0911406B09115061092160610920B
:1025B0001706109218061092190680930E06909333
:1025C0000F06A0931006B0931106BDCB81E08DAB32
:1025D00056CC098F1A8F39813B8F4D814C8F68CC37
:1025E00020E030E040E05FE3C501B4010E94C43C5C
:1025F0009B01AC01672D762D8BAD9AAD0E946C3995
:10260000A70196010E94C43C9B01AC01698D7A8DA3
:102610008B8D9C8D0E946C398B0189839D83A501D4
:102620009401672D762D8BAD9AAD0E946C396AC0EE
:102630005E962D913D914D915C919197C701B601A8
:102640000E94C43C4B015C0120E030E040E05FE3CD
:102650000E94C43C272D362D4BAD5AAD0E946D39DA
:10266000A70196010E94C43C9B01AC01698D7A8D43
:102670008B8D9C8D0E946C398B0189839D839B017E
:10268000AC016D8D7E8D8F8D98A10E94843C1816B3
:102690008CF52D8D3E8D4F8D58A16DA17EA18FA102
:1026A00098A50E946C399B01AC010E946D396B01A9
:1026B0007C012D893E894F89588D672D762D8BADF4
:1026C0009AAD0E946D399B01AC01C701B6010E9411
:1026D0006C3A6B017C017D886E88BF89BBAFE88D49
:1026E000EAAFFDA9FD870D8D1E8D2F8D298338A1A1
:1026F0003D8338CCA5019401672D762D8BAD9AAD25
:102700000E946D39762E672E8BAF9AAF2BCC2D8918
:102710003E894F89588DC701B6010E94C43C9B0178
:10272000AC01698D7A8D8B8D9C8D0E946C398B01EB
:1027300089839D8329A53AA54BA55CA50E94623A91
:1027400087FF10CC29A53AA54BA55CA5698D7A8D8C
:102750008B8D9C8D0E946C392D893E894F89588DB7
:102760000E946C3A6B017C0109A51AA54BA549830F
:102770005CA55D8382E08D87F5CB5E962D913D91C2
:102780004D915C919197C701B6010E94C43C4B01E9
:102790005C01AC019B01672D762D8BAD9AAD0E943B
:1027A000843C181644F520E030E040E05FE3C501CA
:1027B000B4010E94C43C9B01AC01672D762D8BAD0A
:1027C0009AAD0E946C39A70196010E94C43C9B01FE
:1027D000AC01698D7A8D8B8D9C8D0E946C398B013B
:1027E00089839D832DA53EA54FA558A90E94843CB1
:1027F00018160CF414CF2DA53EA54FA558A9698D28
:102800007A8D8B8D9C8D0E946C399B01AC010E944E
:102810006D396B017C012EA93FA948AD59AD672DDB
:10282000762D8BAD9AAD0E946D399B01AC01C7012D
:10283000B6010E946C3A6B017C017EA86FA8B8AD0E
:10284000BBAFE9ADEAAF0DA51EA5FFA5F98328A989
:102850002D8388CB29A93AA94BA95CA9B801898104
:102860009D810E94843C18168CF42EE333EC4EE2DA
:1028700059E369A17AA18BA19CA10E946D3969A33A
:102880007AA38BA39CA3A201910182CB4D85409397
:10289000050690CB1092A6061092A7061092A806E5
:1028A0001092A90610922206C8CB2091F50530910E
:1028B000F6054091F7055091F805C201B1010E945B
:1028C0006D392B013C0129853A854B855C85C50115
:1028D000B4010E946C399B01AC01C301B2010E949A
:1028E0006C3A4B015C0120EC31EE44E65EE40E9460
:1028F000C43C0E944B3A0E94E53A603D57E07507A0
:102900008105910508F066C027E0A989BA892A9F48
:10291000F0012B9FF00D1124E459FA4F158227E0A6
:10292000A989BA892A9FF0012B9FF00D1124E4593F
:10293000FA4F7383628380916B05809396058F5F56
:10294000863009F4A1C080936B05E0912306F091D5
:102950002406C801A981BD8182A393A3A4A3B5A322
:10296000C092F905D092FA05E092FB05F092FC05C1
:1029700029853A854B855C85C701B6010E946C3973
:10298000A50194010E94C43C6093F5057093F6057F
:102990008093F7059093F80520910606309107067D
:1029A0004091080650910906B80189819D810E94D5
:1029B000623A81113FC9F0909C0620E030E0A90105
:1029C000B80189819D810E94843C18160CF05FC07B
:1029D0008F2D80CB603A3FE0730781059105A0F50C
:1029E000A7E049895A89A49FF001A59FF00D112401
:1029F000E459FA4FB1E0B583A7E049895A89A49F09
:102A0000F001A59FF00D1124E459FA4F2581022E03
:102A100004C096958795779567950A94D2F74D856A
:102A20005E8502C0440F551F2A95E2F7518340830B
:102A30006115710551E08507910508F470CF4FEFDE
:102A40005FEF5383428377CF6034EFE17E078105E8
:102A5000910568F447E029893A89429FF001439F34
:102A6000F00D1124E459FA4F52E05583C5CF27E009
:102A7000A989BA892A9FF0012B9FF00D1124E459EE
:102A8000FA4F33E03583B8CF10926B055ECFF2FC7E
:102A90009FCF109224061092230690913E028091BF
:102AA0006905891709F4C6C881E0890F8F3009F4D8
:102AB00080E020913D02921302C080933D028093FA
:102AC0003E02B8C8282F90919906911110C0CB01F1
:102AD000BA0121110DC01092A6061092A7061092FD
:102AE000A8061092A9060E94C1031092A406089598
:102AF000203131F42D980E945D0D0E94B203F5CF74
:102B00002D9AF9CF2F923F924F925F926F927F92C0
:102B10008F929F92AF92BF92CF92DF92EF92FF92ED
:102B20000F931F93CF93DF93CDB7DEB7A4970FB664
:102B3000F894DEBF0FBECDBF10912606112309F415
:102B400065C081E0809398068DEB93E00E94A70515
:102B5000EFEFE10FE93020F5F0E0EF54FA4E0C947E
:102B60000F3EBA1529162E16311631163416D01509
:102B70003416341686EB91E00E94A7050E94F50AF0
:102B8000082F80FF03C088E50E94F50301FF03C002
:102B900089E50E94F50302FF03C08AE50E94F50360
:102BA0000E94970785E991E00E94A705812F0E9466
:102BB00082050E94BF0584EF91E00E945D0C8DEBC1
:102BC00093E00E94A7058EE094E00E94A7050E9472
:102BD000970780E10E94E7028091250680FF0DC0E3
:102BE0008DEB93E00E94A7058EE094E00E94A7057C
:102BF0000E94970781E00E94E7028091250684FFEA
:102C0000EBCF8FB7F894109226068FBF1091250650
:102C1000112309F401C214FF2AC081E080939906B0
:102C2000A4960FB6F894DEBF0FBECDBFDF91CF9153
:102C30001F910F91FF90EF90DF90CF90BF90AF90DA
:102C40009F908F907F906F905F904F903F902F90CC
:102C500008958DEA91E00E94A705A2CF87EA91E04E
:102C6000FACF81EA91E0F7CF8CE991E0F4CF10FF41
:102C70009CC08CE0EAE2F6E0DE01599601900D92EC
:102C80008A95E1F7BE01675E7F4FCE010D960E94E7
:102C900035038CE30E94F50380919806843009F493
:102CA000C6C008F099C0813009F4C4C008F4A5C0BA
:102CB000823009F4C2C080917706282F2170922EAD
:102CC00080FFBEC08091A506882309F4B9C08DECB1
:102CD00091E00E94A705CE010D960E94E804809124
:102CE000770681FF1DC085EC91E00E94A7059091B9
:102CF000690580913E02981708F4F0C0825F891B35
:102D00000E9482058CE20E94F5038091110290914D
:102D10001202981708F4E4C08058891B0E948205AB
:102D20000E9410097C0181EC91E00E94A705F70147
:102D30006289738984899589EF2809F4D3C0611564
:102D400071058105910511F00E946A058CE70E94CA
:102D5000F50386B1807290912906891709F4C6C0DF
:102D600080E50E94F5030E94F50A082F88E500FF20
:102D700080E30E94F50389E501FF80E30E94F503EB
:102D80008AE502FF80E30E94F5038091A50688236F
:102D900009F4AEC081508093A5068EE30E94F5032E
:102DA0000E94BF0581E00E94E702812F887C09F420
:102DB000EFC080919806982F937009F4B2C017FF66
:102DC000E4C080919806813009F0DCC080919A06B9
:102DD000856080939A06D6C08031A1F030F48830A7
:102DE00009F069CF82EF91E00AC08032E9F08038C3
:102DF00009F061CF81ED91E002C086EF91E00E9481
:102E0000A70559CF80919A0687FD0EC08CEE91E000
:102E10000E94A70580919A0680FF04C080E30E946B
:102E2000F50349CF81E3FBCF88EE91E0E8CF83EE55
:102E300091E0E5CF8DED91E0E2CF87ED91E0DFCF3E
:102E40004090E5065090E6066090E7067090E80630
:102E50005DECA52E56E0B52ECE0101966C01FE016B
:102E60003D967F0100E0F501619171918191919111
:102E70005F0120853185428553850E946D39F601B9
:102E800061937193819391936F01023041F4A30197
:102E900092010E946D3969877A878B879C87911090
:102EA00012C0F60134972081318142815381F701AC
:102EB00060817181828193810E946C39F701608306
:102EC0007183828393830F5FF4E0EF0EF11C033074
:102ED00051F69110FCCE89EC91E0FBCE81500FCFE2
:102EE00081501BCF80E30E94F50330CF80E339CFC0
:102EF000809198068C7399F08DE18093A50680915E
:102F0000A406811103C081E08093A4068DEB91E0BB
:102F10000E94A705CE0101960E94E8043ECF89E0F9
:102F2000ECCF8872A9F080919A06807C89F40E9487
:102F3000710382E080939C0680919806803241F470
:102F400080E217FD0CC080919A06806880939A06F3
:102F500080919806811103C091E090939A0616FF24
:102F600007C085FD05C090919A06906490939A06DB
:102F700013FF25CF807A09F022CF80E18093980655
:102F800017FF03C080E88093980688EC0E94E70250
:102F900011FF1CC0812F8874B1F48091980688239A
:102FA00009F4D3C084FF0FC090919A0690FF0BC024
:102FB000803109F0CAC08091A306882309F4C5C0F6
:102FC00088608093A30682E00E94E70212FF24C07B
:102FD00090919A0680919806807909F4CFC08091EB
:102FE0009B068111CBC097FDCBC00E9471038091DD
:102FF0003E0280933D020E94280980919C0681FF39
:1030000005C090919A06916090939A06897F80936B
:103010009C0684E00E94E70290912706992309F418
:103020004CC08FB7F894109227068FBF4091A0062E
:10303000842F90FD84E691FD865F92FD8A5093FD7A
:103040008F5F94FD8150893C08F088EC8A3008F449
:103050008AE03091A106232F95FD24E696FD22E318
:1030600097FD29E1481302C0231739F18093A00688
:103070002093A1061092A40670903E02609069050C
:10308000172D89E9282E96E7392E26E9422E3EE7AC
:10309000532E46E3842E161182C0C101D2018093C3
:1030A000190190931A01A0931B01B0931C010E9477
:1030B000710370923D020E94280910912806112385
:1030C00009F43BC08FB7F894109228068FBF9091F7
:1030D000A206892F10FD84E611FD865F12FD8A503D
:1030E00013FD8F5F14FD8150893C08F088EC8A3015
:1030F00008F48AE09817A1F0909198068093A206B0
:103100009111A3C04091B4065091B5066091B606E6
:103110007091B7068091B2060E9462151092A406C3
:1031200015FF0BC080919806803139F48091A30679
:10313000811191C082E08093A306809198068C7BD8
:1031400009F46ECD0E94FC0D6BCD10929C060E947E
:103150001009892B71F080919A0686FD0AC01092A1
:103160009A0688E0809398060E94FC0D0E942A0C23
:103170002ACF10929A061092980625CF97FF0AC080
:1031800010929C060E94E00C0E94AD0C0E942D0B38
:103190000E947B0810929A06109298063ACFA12EB0
:1031A000B12C189DC0011124815C9D4F0E949D0887
:1031B000962EC72ED82E092F9101A2010E94843C81
:1031C0008A9C70018B9CF00C11249701215C3D4F6F
:1031D000790118168CF59101A201B101C2010E947A
:1031E000C43CF701628F738F848F958F8A9CC001D6
:1031F0008B9C900D11249C01215C3D4F7901F901BC
:1032000026A037A040A451A4A2019101628D738D24
:10321000848D958D0E94843C18162CF4F701228E23
:10322000338E448E558E1F5F1F3009F410E0292C19
:103230003C2C4D2C502E2FCF292D3C2D4D2D502F79
:10324000692D7C2D8D2D902FCACF80919C06886092
:1032500080939C0663CF80FF75CF84606CCFCF9244
:10326000DF92EF92FF92CF93DF930E9482158091BD
:103270009A06882309F455C00E941009009769F442
:10328000C091B206C090B406D090B506E090B606E4
:10329000F090B706C073D1E024C0FC01C189C073AF
:1032A000C2A8D3A8E4A8F5A8F5CF909199069111EA
:1032B00038C080FF14C09091980697FF54C082FDDB
:1032C00015C01092A30640E050E0BA0180E00E94D1
:1032D000621580919A068D7F846080939A060E9481
:1032E000821580919A068111E0CF1BC0903819F5A4
:1032F0008DEB93E00E94A70583EC93E00E94A70565
:103300000E94970740E050E0BA0180E00E946215F9
:103310000E94670C80E30E94450C809199068823E7
:1033200039F0DF91CF91FF90EF90DF90CF9008952B
:103330000E948215F2CF83FFD2CF9091B2069923DB
:1033400039F081FD05C0B701A6018C2F0E946215DE
:1033500080919A0681FDC3CF806180939A0682E0B6
:103360000E94F102BCCF8091A306882379F181FFEE
:103370000DC08091B206882331F140E050E0BA01DF
:1033800080E00E946215D093A306A9CF8C7009F447
:10339000A6CF8091B206882379F08DEB93E00E944E
:1033A000A70589EC93E00E94A7050E949707B70143
:1033B000A6018C2F0E9462158091A30683FF03C093
:1033C00082E00E94F1021092A30689CF80919C06B0
:1033D00083FF85CFB701A6018C2F0E9462158091D3
:1033E0009C06877F80939C067ACF0E9420090E94CA
:1033F0002F1980919906811108C00E941009892B0C
:10340000B1F780919806883091F30895CF93DF93B8
:1034100091E5899FE0011124C055DD4F40E550E062
:10342000BE0182E297E00E94A80B892B79F41092EA
:1034300022070E94F51940E550E062E277E0CE01F4
:103440000E94530B80E0DF91CF91089581E0FBCF84
:103450000E94F5191092A50608950F931F93CF931C
:10346000C82F8B010E94F5192DE0C29FC0011124C5
:103470004CE050E0B8019E5FCF911F910F910C94EA
:10348000530B1F93CF93DF93182FEB018DE0189F01
:10349000B00111247E5F4CE050E0CE010E94A80BE9
:1034A000892B71F48CE0FE0111928A95E9F7BE0137
:1034B000812F0E942D1A80E0DF91CF911F910895F6
:1034C00081E0FACFEF92FF920F931F93CF93DF9398
:1034D000CDB7DEB72C970FB6F894DEBF0FBECDBFC9
:1034E000182F80FF0BC085E5EBE5F3E0A3E4B6E021
:1034F00005900D928A95E1F70E948E0B11FF10C086
:10350000CE0101967C018CE0F70111928A95E9F7D2
:1035100000E0B701802F0E942D1A0F5F0830C9F715
:1035200012FF14C060E080EB92E00E94330B60E079
:1035300081EB92E00E94330B60E081E093E00E9417
:10354000330B60E082E093E00E94330B13FF0AC06C
:1035500060E08EEA93E00E94330B60E08FEA93E034
:103560000E94330B2C960FB6F894DEBF0FBECDBF72
:10357000DF91CF911F910F91FF90EF9008952F92BF
:103580003F924F925F926F927F928F929F92AF92F3
:10359000BF92CF92DF92EF92FF920F931F93CF9340
:1035A000DF93CDB7DEB7C254D1090FB6F894DEBFB2
:1035B0000FBECDBF3B0100916905202E312C26E3C3
:1035C000029FA0011124BA01615C7D4F7CAB6BAB03
:1035D000FB0111922A95E9F7F3012085FB01218B6C
:1035E000F3014481558166817781EBA9FCA942AB47
:1035F00053AB64AB75ABF30141855285638574852C
:10360000EBA9FCA9428B538B648B758B21FFF0C017
:103610002CE0EAE2F6E0DE01599601900D922A953F
:10362000E1F789AB9AAB23E436E021963FAF2EAFAA
:103630002197BE01635F7F4F7EAF6DAFCE0149968C
:103640009CAF8BAFEBA9FCA9FAAFE9AF9E012B5D54
:103650003F4F3EAB2DAB38AF2FAB10E086E3829DE2
:103660002001839D500C1124B201615C7D4F2B0120
:10367000CB010C9623969FAF8EAF239790E1490E16
:10368000511CE9A9FAA96191719181919191FAABCB
:10369000E9AB2196EEADFFAD219781909190A1907D
:1036A000B1902196FFAFEEAF2197A50194010E9442
:1036B000C43C0E94913CEDADFEAD6193719381934A
:1036C0009193FEAFEDAFEBADFCADC190D190E19029
:1036D000F190FCAFEBAF6C197D098E099F099B013E
:1036E000AC0197FF07C022273327A901261B370B00
:1036F000480B590BE9ADFAAD2193319341935193A6
:10370000FAAFE9AF2396EEADFFAD2397C080D1802D
:10371000E280F380C216D306E406F50610F46901D0
:103720007A012396EEADFFAD2397C082D182E2826B
:10373000F3820E94163BA50194010E946C3AEFA906
:10374000F8AD6193719381939193F8AFEFAB20E063
:1037500030E0A9010E94623A87FF0BC090E211237A
:1037600021F090E8113009F490E4F2018081892B76
:1037700080831F5F133009F084CF80E0CD28CE28EE
:10378000CF2809F4CBC0CE0185960E94F10C4B01E5
:103790005C0126E3229DC001239D900D11249C0114
:1037A000215C3D4F7901F90182A293A2A4A2B5A2A6
:1037B000BE016B5D7F4F8BE596E00E94930AF70197
:1037C000668F778F80A391A3BE016B5D7F4F8FE4DF
:1037D00096E00E94930AF70162A773A784A795A7B2
:1037E000118910FF09C066A777A780AB91AB10C005
:1037F0002CE0E1E0F1E00FCFF30120813181428143
:10380000538113FDA5C0F70126A737A740AB51ABE5
:1038100080913E02081711F011FFA0C086E3829D3F
:10382000F001839DF00D1124E15CFD4F168A178A8B
:10383000108E118E16A217A210A611A686E3829DE5
:103840008001839D100D1124015C1D4FF8018189B9
:1038500081FD63C08BA99CA90E949D086B017C011E
:103860008090190190901A01A0901B01B0901C014A
:10387000AC019B01C501B4010E94623A87FF36C1C9
:10388000A5019401C501B4010E94C43CF801628FF6
:10389000738F848F958F86E3829D8001839D100DA9
:1038A0001124015C1D4FF80186A097A0A0A4B1A42B
:1038B000A5019401628D738D848D958D0E94843C49
:1038C00018162CF4F801828E938EA48EB58EC092B9
:1038D0001901D0921A01E0921B01F0921C018CE0B8
:1038E000FE01B596ADE0B1E001900D928A95E1F749
:1038F0008CE0FE013D96A1E0B1E001900D928A9529
:10390000E1F780910001809369058F5F8F3009F4A2
:1039100080E0809300010E94280981E0CE5BDF4FA8
:103920000FB6F894DEBF0FBECDBFDF91CF911F91D0
:103930000F91FF90EF90DF90CF90BF90AF909F904E
:103940008F907F906F905F904F903F902F90089551
:10395000C501B4010E94C43CF70145CF2DE031E020
:103960003AAB29AB8E010F5F1F4F6DA97EA9645F33
:103970007F4F7CAF6BAFC12CD12C76010FAB19AF51
:10398000E9A9FAA981909190A190B190FAABE9AB25
:10399000EDA9FEA94190519061907190FEABEDAB05
:1039A000A3019201C501B4010E94C43C9B01AC017A
:1039B000C701B6010E946C396B017C01A50194011D
:1039C000C301B2010E946C39F80161937193819334
:1039D00091938F012BAD3CAD6DA97EA926173707BA
:1039E00079F62FEE3FEF4FE75FE3C701B6010E9484
:1039F000843C18164CF486E3829DF001839DF00D03
:103A00001124E15CFD4F16CF2FEE3FEF4FE75FEB48
:103A1000C701B6010E94623A87FF11C086E3829D0A
:103A2000F001839DF00D1124E15CFD4F89E996E7DB
:103A3000A6E9BEE786A397A3A0A7B1A7FFCE8FA94B
:103A400099AD0E94F10C6FA979AD8BE596E00E94CB
:103A5000930A4B015C01A701960160E070E080E8E9
:103A60009FE30E946C3920E030E040E05FE30E9479
:103A7000C43C0E94633D6B017C012091780630912B
:103A8000790640917A0650917B06C501B4010E94E7
:103A9000C43CA70196010E94C43C4B015C01A701F4
:103AA000960160E070E080E89FE30E946C399B0122
:103AB000AC01C501B4010E946C3A6B017C0120E0AD
:103AC00030E0A9010E94623A87FF03C0C12CD12CCB
:103AD000760186E3829DF001839DF00D1124E15C67
:103AE000FD4FC6A2D7A2E0A6F1A6A8CEA7019601D7
:103AF000C701B601C9CEEF92FF921F93CF93DF9318
:103B0000EC017B018091880685FF22C01091980608
:103B1000103211F1CE010E94FA028823C9F081E02F
:103B200080939B06183069F488E00E94F1020E949D
:103B30002F198091990681110BC0809198068111EF
:103B4000F6CF0E948A0C82E00E94E1020E942F19A7
:103B5000809198068230C1F00E942F1980919906B9
:103B6000811112C090913E0280910001981303C010
:103B70000E942009F1CFB701CE01DF91CF911F91B3
:103B8000FF90EF900C94BF1ADF91CF911F91FF909F
:103B9000EF9008952F923F924F925F926F927F9293
:103BA0008F929F92AF92BF92CF92DF92EF92FF924D
:103BB0000F931F93CF93DF93CDB7DEB7CC54D109CA
:103BC0000FB6F894DEBF0FBECDBFE9EEF6E089E395
:103BD000DF011D928A95E9F78AE0EAEAF6E0AAEEAB
:103BE000B6E001900D928A95E1F780912207843228
:103BF00089F01E8E1FA2312C212C1CAA1BAAC12CBD
:103C0000D12C1F8EEE24E394F12C41E6842E43E068
:103C1000942E50C181E08093EA061092EB0683E077
:103C20008E8FB1E0BFA3E7CF9FEB9B0D9A3110F0D1
:103C30000C940C2B8F5F8E8FBE01665E7F4FCE0182
:103C40004E960E942202882311F40C940F2B4A8C6A
:103C50005B8C6C8C7D8CC301B2010E94A73D0E94DD
:103C6000E53A162F70E090E080E00E94163B9B0141
:103C7000AC01C301B2010E946C3920E030E048EC95
:103C800052E40E94C43C0E94313D0E94E53ACB01BF
:103C9000E7E4BE1629F1FDE4BF1609F466C1EAEBBC
:103CA000EB0DE53108F02CC00E2E000CFF0BE55A91
:103CB000F14E0C940F3EFB1F801E801E29203520E4
:103CC00041204D20801E5120801E5F20801E6920D3
:103CD00073207D20801E801E801E8D209920A520AF
:103CE000183209F4DFC030F5143160F4113108F0F6
:103CF0009AC0143009F475C0B0F01A3009F469C0E4
:103D000084E198C01C3109F464C040F41631C0F756
:103D100025E1211B2093EC0606E089C01E3109F441
:103D200058C0163269F7AF8DA1110C94122BB2E076
:103D3000BF8F28C01D3309F4B0C0E0F4153309F477
:103D400050C088F41B3211F01133D1F6EF8DE11120
:103D50000C94122B113309F097C01092EF06F3E088
:103D6000FF8F08E050C01C3358F616531093F0062E
:103D700009E05DC01C3510F51A3508F075C0103526
:103D800009F0BECF1093EA0601E0163209F04FC0E9
:103D90008431910551F08E31910539F088329105C9
:103DA00021F08233910509F0ABCF6AE070E00E9408
:103DB000D93D66576093EA0601E025C01C3549F0FD
:103DC0001F3508F09DCF2EE5211B2093EB0605E063
:103DD0002EC0009731F42F8D21110C94122B31E05D
:103DE0003F8F1093E906212F2D7F2C3119F000E031
:103DF0001C35E9F4009719F00A9709F081CF610F9B
:103E00006093E90600E0C701002E02C0880F991FE9
:103E10000A94E2F72BA93CA928233923232B09F480
:103E200043C085E107C011511093EE0602E0892BD3
:103E300051F387E1C45BDF4F0FB6F894DEBF0FBECE
:103E4000CDBFDF91CF911F910F91FF90EF90DF9049
:103E5000CF90BF90AF909F908F907F906F905F902A
:103E60004F903F902F900895892B29F41A55109365
:103E7000ED0603E0C8CF6A30710509F041CF1A356D
:103E800009F43ECF04E0BFCF0A9709F039CF21E013
:103E90002093EF0633E03F8F64CF892B09F030CFBA
:103EA0000AE0B1CF07E0C3CFABA9BCA9A82BB92BBF
:103EB000BCABABAB8E8DE82FF0E0EE5DF84FB08081
:103EC000B110B2CEDD2029F0FF8DF11102C022E049
:103ED0002F8F25FE0FC08091050790910607A091B6
:103EE0000707B091080781389649A849B10514F031
:103EF0000C941E2B8FA1882309F433C120FE43C1EB
:103F00008091EC068130B1F423E333E34BEC51E4D0
:103F10006091F4067091F5068091F6069091F7068F
:103F20000E94C43C6093F4067093F5068093F606F5
:103F30009093F70630FC10C08091B4069091B506BE
:103F4000A091B606B091B70680931107909312071F
:103F5000A0931307B09314078091E906843009F009
:103F60002DC126FC29C18CE165CF892B09F061CFD9
:103F70001A3078F4183040F51330B0F0163008F0ED
:103F8000BFCE1430E9F080E11530D9F41092F2067A
:103F90001AC0123171F11E3159F0113109F0B0CE51
:103FA00088E40E94450C10C0112329F0113031F033
:103FB0001093F10603C0B3E0B093F1060BE004C028
:103FC00080E28093F2060CE0C701002E02C0880F49
:103FD000991F0A94E2F72BA93CA928233923232B04
:103FE00009F01FCFEBA9FCA9E82BF92BFCABEBAB3D
:103FF00061CF80E3D6CF4092F4065092F5066092EE
:10400000F6067092F70600E05701002E02C0AA0CD7
:10401000BB1C0A94E2F7C50182219321892B11F080
:104020000C94182BC401002E02C0959587950A9414
:10403000E2F780FF0BC020E030E0A901C301B2012C
:104040000E94623A87FF02C00C941B2B2A283B284F
:1040500031CF4092F8065092F9066092FA067092BB
:10406000FB066894C0F801E0CFCF4092FC06509266
:10407000FD066092FE067092FF066894C1F802E0A9
:10408000C3CF4092000750920107609202077092DE
:1040900003076894C2F803E0B7CF1093040704E065
:1040A000B3CFC301B2010E94DE3A6093050770935B
:1040B0000607809307079093080705E0A5CF409275
:1040C000090750920A0760920B0770920C0706E0EE
:1040D0009BCF40920D0750920E0760920F0770928F
:1040E000100707E091CF409211075092120760929B
:1040F00013077092140708E087CF20E030E04FE705
:1041000053E4C301B2010E94843C181614F40C94C9
:10411000152B1093150709E077CF409216075092A0
:10412000170760921807709219076894D0F80AE090
:104130006BCF40921A0750921B0760921C07709237
:104140001D076894D1F80BE05FCF40921E07509294
:104150001F0760922007709221076894D2F80CE044
:1041600053CF8091EB06813081F49F8D923009F01E
:10417000E1CE8091EA06803509F4DCCE882309F48B
:10418000D9CE20FCD7CE86E155CE8091AB068111E9
:10419000D1CE20FCB5CE8091B8069091B906A09101
:1041A000BA06B091BB068093F4069093F506A093EF
:1041B000F606B093F706BECEE89426F88091EE0698
:1041C000882359F0813009F4B6C022961FAE229799
:1041D000E2E0EBAFF1E0F9AF07C0A2E02296AFAFAB
:1041E0002297B1E0BBAF19AE8091EC06813059F552
:1041F00029EEE22E26E0F22E10E000E0AD2CB12CEC
:10420000C501002E02C0959587950A94E2F780FFBC
:1042100012C023E333E34BEC51E4D7019D966D913B
:104220007D918D919C91D0970E94C43CF70165A728
:1042300076A787A790AB0F5F1F4FF4E0EF0EF11C3E
:1042400003301105E9F62F8D233041F48091EF06FC
:10425000813021F434E085E2D312ECCD8CE0EDEC3A
:10426000F6E0DE011E9601900D928A95E1F78BA98A
:104270009CA991FD68C01091E9061A3009F477C035
:104280001C3509F414C18F8D833009F43FC0DD2043
:10429000E9F10091ED068091E5069091E606A09186
:1042A000E706B091E8068BA39CA3ADA3BEA3EAEA00
:1042B0008E2EE6E09E2EF9EEAF2EF6E0BF2EF12C0C
:1042C000E12CAD2DB0E0BCA7ABA78BA59CA50E2C17
:1042D00002C0959587950A94E2F780FD53C1F401D9
:1042E0008789908DA18DB28DF50185A796A7A7A787
:1042F000B0ABFFEFEF1AFF0A24E0820E911C34E00E
:10430000A30EB11C83E0E816F104F9F61E3109F49E
:1043100089C1153309F4ACC168EF76E086E01C3141
:1043200009F023C10E94411A8823F9F0D1107EC1FF
:104330001BA21F8EA6C021E022962FAF22971BAE94
:1043400032E039AF51CF8091F006873010F08DE127
:1043500071CD9091B006891709F48DCFBE01625FCF
:104360007F4F0E94411A811186CF87E063CDD11023
:1043700002C08AE15FCDC10180759927892B09F4BC
:10438000F2CD6091090770910A0780910B07909117
:104390000C070E94A73D0E94E53A6730C0F6809165
:1043A0000407843129F0823009F0AACC27FCA8CC7C
:1043B000662309F470C061506BA368EF76E08BA1AF
:1043C0000E94411A882389F2A0910407ABA740906C
:1043D000E5065090E6066090E7067090E80699EED4
:1043E000E92E96E0F92E10E000E0ED2DF0E0F8ABBC
:1043F000EFA78FA598A9002E02C0959587950A94DE
:10440000E2F780FF33C0D7019D968D909D90AD90CF
:10441000BC90D097BBA5B43109F041C0F801EE0FB4
:10442000FF1FEE0FFF1FE655F94F27A530A941A941
:1044300052A96789708D818D928D0E946C39A5017A
:1044400094010E946C39F7016787708B818B928B86
:10445000023061F4A30192010E946C39609300075D
:104460007093010780930207909303070F5F1F4F1C
:10447000B4E0EB0EF11C0330110509F0BACFEFEAFE
:104480002E221091EA06103509F0F9C0DD2009F45A
:104490001CC18FE1CFCC9091F0069BA38ECFD701AA
:1044A0001F968D929D92AD92BC925297DFCFDD20E8
:1044B00009F45FCF4090E5065090E6066090E7066D
:1044C0007090E806AAEAAA2EA6E0BA2E4E01FEE0F7
:1044D0008F0E911CB9EEEB2EB6E0FB2E10E000E043
:1044E0002D2D30E03CA32BA38BA19CA1002E02C05C
:1044F000959587950A94E2F780FF39C0D4012D91F4
:104500003D914D915C91F5016789708D818D928D02
:104510000E946C39D7019D962D913D914D915C91F2
:10452000D0970E946C39F70165A776A787A790AB53
:10453000023061F4A30192010E946C3960931E075E
:1045400070931F0780932007909321070F5F1F4FE1
:10455000F4E0AF0EB11C24E0820E911C34E0E30EB7
:10456000F11C0330110509F0BFCF1BA28ACFF50162
:1045700087A590A9A1A9B2A9F70185A796A7A7A782
:10458000B0ABE4CF153309F4B4CED5019D964D9070
:104590005D906D907C90D097011133C0F701EE0FC4
:1045A000FF1FEE0FFF1F2EE030E02C0F3D1FE20F2C
:1045B000F31FD4019F962D913D914D915C91D2971F
:1045C00060817181828193810E946D39A301920182
:1045D0000E946D39F50165A776A787A790ABF2E039
:1045E000EF1287CE2BA13CA14DA15EA10E946D3997
:1045F00060931E0770931F078093200790932107F5
:1046000078CEA3019201D40157966D917D918D9141
:104610009C915A970E946D39F50165A776A787A7E7
:1046200090AB67CE68EF76E087E07CCEAAEAB6E092
:10463000E9EEF6E090E080E02D2D30E0A901082EB3
:1046400002C0559547950A94E2F740FD0AC0579677
:104650004D915D916D917C915A974787508B618BFD
:10466000728B0196149634968330910539F77DCF7D
:104670008091EA06823008F478CF8EE1DBCB9F8D03
:10468000923019F5111104C0D1101FC01F8E1DC02A
:1046900020E030E0A9016091F4067091F506809168
:1046A000F6069091F7060E94623A882309F46BCDD2
:1046B0001C3809F488C008F07DC0123009F498C095
:1046C000133009F498C01130F9F22FA12170BFA165
:1046D000C101B0FFA4C28E7DEF8DE111937E892BC5
:1046E00009F0B5C78E010F5F1F4F8DE0D8011D92F5
:1046F0008A95E9F7222309F495C28BA99CA9867BA8
:10470000892B09F0A7C78091E906853311F0811143
:10471000A1C78091B4069091B506A091B606B0915C
:10472000B7068D839E83AF83B8878091B206409190
:10473000F4065091F5066091F6067091F7064983EC
:104740005A836B837C83846089878091050790916D
:104750000607A0910707B09108078A879B87AC8757
:10476000BD878091880685FF06C086E197E00E949C
:10477000FA02811172C7B80186E197E00E947B1DA1
:104780008091980681110BC00E941009892B39F085
:1047900080E2809398060E94FC0D0E942A0C8CE017
:1047A000E6E1F7E0A1ECB6E001900D928A95E1F721
:1047B00080E040CB1E3839F018F01F3809F085CF63
:1047C0009FA190619FA31E58123018F4AFA1A8605A
:1047D000AFA3DD2009F4CDCD4CE050E066E177E0F9
:1047E00081EC96E00E942F3E892B09F06ECF6BC0C2
:1047F000AFA1A460AFA3DD2009F4BBCDF9ADEF2FCD
:10480000F0E0F8ABEFA73BAD232F30E03EAF2DAF8C
:1048100081E090E07C0109AC02C0EE0CFF1C0A9420
:10482000E2F70BAC02C0880F991F0A94E2F7E82A5E
:10483000F92A8D2D90E08E219F21892B09F401C743
:10484000CF01880F991F880F991FFC01E751F94F7D
:104850008655994FDC0157962D913D914D915C9174
:104860005A9765A576A587A590A90E946C394B013A
:104870005C018DAD9EAD880F991F880F991FFC01BB
:10488000E751F94F8655994FDC0157962D913D918F
:104890004D915C915A9765A576A587A590A90E9430
:1048A0006C396BA77CA78DA79EA727FEE9C0E8946B
:1048B00027F84CE050E066E177E081EC96E00E945A
:1048C0002F3E892B11F481E2B5CA60910D077091DA
:1048D0000E0780910F07909110072091EC06213070
:1048E00071F423E333E34BEC51E40E94C43C609346
:1048F0000D0770930E0780930F0790931007409059
:104900000D0750900E0760900F0770901007A501DB
:104910009401C501B4010E94C43C6DAB7EAB8FAB6A
:1049200098AF2BA53CA54DA55EA5CA01B9010E9473
:10493000C43C29966CAF7DAF8EAF9FAF299720E026
:1049400030E040E850E4C301B2010E94C43CA3013E
:1049500092010E94C43C2DA93EA94FA958AD0E94C6
:104960006C3929962CAD3DAD4EAD5FAD29970E94B7
:104970006C396B017C0120E030E0A9010E94623AB1
:1049800087FD62C6C701B6010E94633D6B017C01D1
:1049900029962CAD3DAD4EAD5FAD29976DA97EA991
:1049A0008FA998AD0E946D390E94633D9B01AC01B7
:1049B000C701B60190580E946C3A6B017C0113301C
:1049C00021F4F7FAF094F7F8F09420E030E0A90130
:1049D000C301B2010E94623A87FF0FC0F7FAF09458
:1049E000F7F8F094D301C201B05880930D0790936B
:1049F0000E07A0930F07B09310070FA518A9000F7B
:104A0000111F000F111F0351194FA70196016BA52C
:104A10007CA58DA59EA50E94C43C9B01AC01C5014F
:104A2000B4010E946C3920E030E040E05FE30E9476
:104A3000C43CF80163877487858796870DAD1EADEA
:104A4000000F111F000F111F0351194FA7019601ED
:104A5000C501B4010E94C43C2BA53CA54DA55EA593
:104A60000E946D3920E030E040E05FE30E94C43CEA
:104A7000D8011B966D937D938D939C931E9725CEA5
:104A8000D12CEC20FD2083E2EF2809F4D3C9B1EF4B
:104A90002B228091EC06813041F509EE16E0F12CD5
:104AA000E12CC6010E2C02C0959587950A94E2F779
:104AB00080FF12C023E333E34BEC51E4F801678538
:104AC0007089818992890E94C43CD8011F966D9398
:104AD0007D938D939C935297BFEFEB1AFB0A0C5F6B
:104AE0001F4FE3E0EE16F104E1F6EFA5F8A9EE0F93
:104AF000FF1FEE0FFF1FE351F94FC384D484E584F9
:104B0000F684A7019601C501B4010E946C392B01FE
:104B10003C01EDADFEADEE0FFF1FEE0FFF1FE351A9
:104B2000F94F83859485A585B6858FA798ABA9ABEA
:104B3000BAAB9C01AD016BA57CA58DA59EA50E947D
:104B40006C394B015C01A3019201C301B2010E94C7
:104B5000C43C2B013C01A5019401C501B4010E9494
:104B6000C43C9B01AC01C301B2010E946D390E949B
:104B7000633D4B015C01A7019601C701B6010E948C
:104B8000C43C6B017C012FA538A949A95AA9CA01C7
:104B9000B9010E94C43C9B01AC01C701B6010E944F
:104BA0006D390E94633D6B017C01C0920D07D0926C
:104BB0000E07E0920F07F0921007AC019B01C501B0
:104BC000B4010E946C394B015C01E894B7F82AE00B
:104BD00037ED43EA5BE3C501B4010E94843C18163B
:104BE0000CF073CD20E030E040E05FE3C501B4019C
:104BF0000E94843C18160CF466CE2FE632E143E89E
:104C00005AE3C701B6010E94C43C9B01AC01C50137
:104C1000B4010E94843C18160CF057CD54CE8E7D02
:104C20009C7F5ACD8091050790910607A0910707B8
:104C3000B09108078093BD069093BE06A093BF066F
:104C4000B093C0068A879B87AC87BD878091EB06AF
:104C50008093AB06882311F088E089878091F40661
:104C60009091F506A091F606B091F7068093B806EC
:104C70009093B906A093BA06B093BB0689839A8332
:104C8000AB83BC838090110790901207A09013070C
:104C9000B0901407A50194016091B4067091B50617
:104CA0008091B6069091B7060E94623A8823F9F087
:104CB000F090B206FF2059F080919806823039F0CA
:104CC0000E94F519B501A4018F2D0E9462158091F3
:104CD000110790911207A0911307B09114078093C8
:104CE000B4069093B506A093B606B093B70680902D
:104CF000B4069090B506A090B606B090B7068D8227
:104D00009E82AF82B886809115078093BC06F09092
:104D1000F2068091B2068F1579F080919806823064
:104D200039F00E94F519B501A4018F2D0E9462157A
:104D30008091F2068093B20689859091B206892B04
:104D400089878091E906843009F47FC08091EE065E
:104D50008093AE068091EC068093AC06BF8DB33095
:104D600071F58091EF068093AF06811108C0109213
:104D70001E0710921F071092200710922107C09063
:104D80001E07D0901F07E0902007F0902107A70191
:104D900096016091E5067091E6068091E706909194
:104DA000E8060E94623A882351F0C092E506D0924C
:104DB000E606E092E706F092E8060E94281A809143
:104DC000F0069091B006981769F08093B0068CE0D9
:104DD000FE013E96ADECB6E001900D928A95E1F7AA
:104DE0000E94281A8091ED068093AD068091E90615
:104DF000863209F49AC008F05BC08C3109F47BC09C
:104E00008E3109F478C08A3009F45FC08091EA06D7
:104E10008093AA06803509F46AC3BF8DB23009F0C9
:104E200066C3813009F095C0BE016F5F7F4F86E198
:104E300097E00E947B1D8CE0E6E1F7E0A1ECB6E094
:104E400001900D928A95E1F752C3809198068230C5
:104E500009F47CCFC0900907D0900A07E0900B07B7
:104E6000F0900C070E94F51920E030E040EA51E490
:104E7000C701B6010E94C43C0E944B3A0E94E53A29
:104E80007B01E114F10409F461CFE1E0EE1AF108CD
:104E90008091990681115ACF0E942F19FFEF20E7C8
:104EA00032E0F15020403040E1F700C00000E9CF8F
:104EB0008C3509F440C0863609F443C0883209F0C5
:104EC000A5CF61EC76E087E033C068EF76E08BA198
:104ED0000E942D1A8091B0069BA1981397CF8CE069
:104EE000E8EFF6E0ADECB6E001900D928A95E1F7BF
:104EF0000E94281A8BCF898581608987AF8DAA236C
:104F000029F0B80186E197E00E947B1DB80188EF87
:104F100096E00E947B1D8CE0E8EFF6E0A1ECB6E0A5
:104F200001900D928A95E1F771CF61EC76E086E011
:104F30000E942D1A6BCF8CE0E6E1F7E0A9EDB6E018
:104F4000D3CFE9EDF6E08CE0DF011D928A95E9F719
:104F5000CFCF811105C0898581608987B80167CF6E
:104F60008250823008F09DC280910D0790910E070B
:104F7000A0910F07B09110078BA39CA3ADA3BEA374
:104F8000A9AD94E0A99F70011124F701EF53F94FE7
:104F9000FCABEBAB97012850394F3AAF29AFD901A1
:104FA0004D905D906D907C90208131814281538144
:104FB000C301B2010E946D396BA77CA78DA79EA784
:104FC000EBADB4E0EB9F8001112498012F53394FD2
:104FD0003CAF2BAFC8018850994F98AB8FA7DC012D
:104FE0008D909D90AD90BC90F901208131814281DE
:104FF0005381C501B4010E946D3921966CAF7DAF1C
:105000008EAF9FAF219777FA709477F87094D5019F
:10501000C401B0588F8F98A3A9A3BAA3F701EA5E81
:10502000F84F2BA53CA54DA55EA5608171818281BD
:1050300093810E946C396B017C01F801EA5EF84FA4
:1050400021962CAD3DAD4EAD5FAD21976081718154
:10505000828193810E946C394B015C01A70196010A
:10506000C301B2010E94C43C6DAB7EAB8FAB98AF65
:10507000A50194016F8D78A189A19AA10E94C43CD9
:105080009B01AC016DA97EA98FA998AD0E946D39D5
:105090006DAB7EAB8FAB98AFA5019401C301B2019C
:1050A0000E94C43C4B015C01A70196016F8D78A161
:1050B00089A19AA10E94C43C9B01AC01C501B40125
:1050C0000E946C392DA93EA94FA958AD0E94EC3918
:1050D0006B017C019FA192FF6AC12DEB37E346E093
:1050E00055EBC701B6010E94843C87FD0AC02BED39
:1050F0003FE049EC50E4C701B6010E946C396B01F6
:105100007C0180907C0690907D06A0907E06B090F9
:105110007F062BA13CA14DA15EA1CA01B9010E944D
:105120006D39A50194010E946C39A50194010E947A
:10513000C43C0E94633D4B015C0120E030E040E054
:105140005FE3C701B6010E94C43C2BA13CA14DA165
:105150005EA10E94C43C9F77A50194010E946C3A15
:105160000E94513B0E94E53A7EAB6DABDB01AB2B5D
:1051700009F45ACE198590E080E00E94143B4B015F
:105180005C0113FF0EC0AC019B0169817A818B81A8
:105190009C810E94C43C69837A838B839C83177FA4
:1051A0001987A5019401C701B6010E946C3A6FA34B
:1051B00078A789A79AA72296EFAD2297B4E0EB9F34
:1051C000C00111248C010F53194F8A5E984FD801EA
:1051D0002D913D914D915C91FC01608171818281A5
:1051E00093810E946C39A50194010E946C3A2D961E
:1051F0006CAF7DAF8EAF9FAF2D972FA138A549A57E
:105200005AA5CA01B9010E94C43C9B01AC0160E0EF
:1052100070E080E090E40E946C396B017C012BEA25
:105220003AEA4AE25EE36FA178A589A59AA50E94B1
:10523000C43C4B015C0120E030E040E850E4C70191
:10524000B6010E946D399B01AC01C501B4010E94F9
:10525000C43C25966CAF7DAF8EAF9FAF259720E005
:1052600030E040E05FE3C701B6010E94C43C2996EC
:105270006CAF7DAF8EAF9FAF29971BA222242394E2
:10528000312CEDA9FEA9E215F30509F4CDCDFBA162
:10529000FC3008F0A0C0A301920125966CAD7DAD55
:1052A0008EAD9FAD25970E94C43C6B017C012F8D74
:1052B00038A149A15AA129966CAD7DAD8EAD9FADA7
:1052C00029970E94C43C9B01AC01C701B6010E9412
:1052D0006D397B016C01A301920129966CAD7DAD06
:1052E0008EAD9FAD29970E94C43C4B015C012F8D70
:1052F00038A149A15AA125966CAD7DAD8EAD9FAD6B
:1053000025970E94C43C9B01AC01C501B4010E94D9
:105310006C392B013C012BA12F5F2BA347015601B8
:105320008F8E98A2A9A2BAA2A30192016BA57CA517
:105330008DA59EA50E946D39EBA9FCA960837183A0
:10534000828393832F8D38A149A15AA121966CADF8
:105350007DAD8EAD9FAD21970E946D39ABADBCADDB
:105360006D937D938D939C9313972D962CAD3DADAE
:105370004EAD5FAD2D97F80160817181828193817F
:105380000E946D39D8016D937D938D939C931397F3
:10539000BE016F5F7F4F81EC96E00E947B1D809184
:1053A0009906811148CDBFEF2B1A3B0A6ACF2DEB2E
:1053B00037E346E055E3C701B6010E94623A18168A
:1053C0000CF49FCE2BED3FE049EC50E4C701B60151
:1053D0000E946D3994CEB10190E080E00E94143BB0
:1053E0002FA138A549A55AA50E94C43C6B017C0198
:1053F0000E94673A6F8F78A389A39AA3C701B60169
:105400000E94553D4B015C01A9ADBAADCD90DD9038
:10541000ED90FC90F7FAF094F7F8F094AFA5B8A9E6
:105420008D919D910D90BC91A02D8BA39CA3ADA3BC
:10543000BEA3A70196016F8D78A189A19AA10E94B0
:10544000C43C2B013C012BA13CA14DA15EA1C50197
:10545000B4010E94C43C9B01AC01C301B2010E9493
:105460006D392B013C01A7019601C501B4010E94D1
:10547000C43C6B017C012BA13CA14DA15EA16F8DB1
:1054800078A189A19AA10E94C43C9B01AC01C701EB
:10549000B6010E946C396F8F78A389A39AA31BA2CF
:1054A00043CF898584608987809198068230F9F09E
:1054B0000E94F51980919906811119C0FFA1F07120
:1054C000FF2E10929D062FA123FB882780F90E94B2
:1054D0001E0486B1807290912906891719F184E023
:1054E0000E94E1020E942F1980E00E941E04809118
:1054F000F1068093B106882311F40C941A1F0E94C0
:10550000F5198091B10690919806833009F052C048
:10551000923029F088E00E94F1020E942F19109227
:10552000B10646C980E380936C0010929E06B801D4
:1055300086E197E00E947B1D81E08093420682E035
:105540000E94F1020E942F19809199068111CFCFFC
:10555000809198068111F6CF80914206813031F515
:10556000FF2001F18CE0EAE2F6E0A6E3B6E001906C
:105570000D928A95E1F71092420680E00E941E0487
:105580000E942F190E94AD0C0E94E00C0E947B0823
:105590000E94510880919D06882309F44CCC0E94FA
:1055A0002D0BA5CF85E00E94E102E5CF81E080933D
:1055B0009D06E1CF81E08093AA061092AE0610927C
:1055C000AD061092AB061092B0061092B20684E6B9
:1055D0008093A0068093A1068093A206923089F062
:1055E0006DEC76E080E00E94411A882311F40C945F
:1055F000B5210E94281A40E050E0BA0180E00E94E4
:1056000062158DEB93E00E94A7058AEE93E00E945D
:10561000A7050E94970783CF81E00C941A1F82E0B0
:105620000C941A1F88E10C941A1F86E20C941A1F1E
:1056300089E10C941A1F84E00C941A1F8BE10C94DE
:105640001A1F80E20C941A1F82E20C941A1F84E243
:105650000C941A1F80E10C941A1F8FE00C941A1FEF
:10566000CF93DF93C0E08C2F0E94061A811114C0E3
:10567000109222078EE30E94F5030E9411048AE330
:105680000E94F50387E00E94A407C13019F4DF915E
:10569000CF910895C1E0E7CF809122078823A9F335
:1056A0000E94CA1DD82F8EE30E94F5030E941104A8
:1056B0008AE30E94F5038D2F0E944908E6CF8F925E
:1056C0009F92AF92BF92CF92DF92EF92FF920F9391
:1056D0001F93CF93DF93CDB7DEB769970FB6F894DA
:1056E000DEBF0FBECDBF8E010F5F1F4F8DE0F801F3
:1056F00011928A95E9F786E089876AE276E0CE0121
:105700000E960E94350310922A0610922B061092D4
:105710002C0610922D068091890680FF02C180E040
:1057200090E0A0EAB0E48E879F87A88BB98B24E035
:10573000F22EF0929F0680918E0690918F06A09196
:105740009006B091910689839A83AB83BC83B8019C
:10575000CE010E960E94BF1AF0929C060E94FC0D8C
:105760000E942A0C0E94FC0D0E94E90AF82E0E9459
:10577000F50AF110F7CF80FDF5CF0E94AD0C8091B6
:105780009206909193060E945D0C6AE276E0CE014B
:105790000E960E94350310922A0610922B06109244
:1057A0002C0610922D0620E030E040EC5FEB60917B
:1057B0006706709168068091690690916A060E945A
:1057C000C43C2091890620FD90586E877F87888B86
:1057D000998B94E0F92EF0929F0680918A06909121
:1057E0008B06A0918C06B0918D0689839A83AB833A
:1057F000BC83B801CE010E960E94BF1AF0929C069F
:105800000E94FC0D0E942A0C99249394AA24A3942C
:10581000F12CE12CD12CC12C0E94E90A882E0E9487
:10582000F50A8170B82E882039F0AA2029F0C0909E
:105830002A06D0902B06A12CBB2039F0992029F004
:10584000E0902A06F0902B06912C0E94FC0D8820F7
:1058500019F3BB2009F30E94AD0C80919206909140
:1058600093060E945D0C6AE276E0CE010E960E94DD
:10587000350310922A0610922B0610922C061092D5
:105880002D068091890680FF51C080E090E0A0EA5B
:10589000B0E48E879F87A88BB98B84E0B82EB09236
:1058A0009F0680918E0690918F06A0919006B091F0
:1058B000910689839A83AB83BC83B801CE010E968F
:1058C0000E94BF1AB0929C060E94FC0D0E942A0CF6
:1058D0000E94FC0D809125068471D1F384E00E9422
:1058E000E7020E94AD0C80919206909193060E946F
:1058F0005D0C10929C06C6018E199F0969960FB621
:10590000F894DEBF0FBECDBFDF91CF911F910F91F5
:10591000FF90EF90DF90CF90BF90AF909F908F90CF
:10592000089580E090E0A0EAB0ECFDCE80E090E049
:10593000A0EAB0ECAECF2F923F924F925F926F925F
:105940007F928F929F92AF92BF92CF92DF92EF920F
:10595000FF920F931F93CF93DF93CDB7DEB7A4973A
:105960000FB6F894DEBF0FBECDBF9091990691118E
:1059700011C1782E8DE0FE013196DF011D928A95CE
:10598000E9F786E08987E3E4F6E0FE8FED8F5F01BB
:105990009E01265E3F4F490110E000E0C12CD12C52
:1059A0007601872D90E098A38F8F802F94E00023BD
:1059B00021F090E1013009F498E0D4019D934D016C
:1059C000EF8DF8A102C0F595E7958A95E2F7E0FF23
:1059D0001BC020E030E040EC5FEBD50194966D9168
:1059E0007D918D919C9197970E94C43C362E472EB5
:1059F000582E692EA70196010E94623A87FD04C0C5
:105A0000C32CD42CE52CF62C0F5F1F4FB4E0AB0E4B
:105A1000B11C0330110549F680908E0690908F06D8
:105A2000A0909006B090910601E095E0692E442484
:105A300043946AE276E0CE010E960E94350380918F
:105A40008906E82FF0E0FCA3EBA3FE013E962AE2D4
:105A500036E03AA329A31901512C10E030E020E0F0
:105A6000B701A60170588F8D98A1022E02C095959E
:105A700087950A94E2F780FF26C05394D1011D92C6
:105A80001D921D921C9213978BA19CA1022E02C005
:105A9000959587950A94E2F780FF07C0002339F0B7
:105AA000408351836283738306C00023C9F3C0829D
:105AB000D182E282F382AAE1B0E0AC0FBD1FA20F57
:105AC000B31F8C91182B2F5F3F4F3496B4E02B0EF1
:105AD000311C2330310539F6652D70E090E080E00F
